:020000040800F2
:10000000A00E0020790200087D150008C913000821
:1000100061140008D5040008F11800080000000071
:10002000000000000000000000000000F7160008BB
:10003000D7040008000000000D160008F91600089B
:10004000930200089302000893020008930200083C
:10005000930200089302000893020008930200082C
:10006000930200089302000893020008930200081C
:10007000930200089302000893020008930200080C
:100080009302000800000000930200089302000899
:1000900093020008930200089302000893020008EC
:1000A00093020008930200089302000893020008DC
:1000B00093020008930200089302000893020008CC
:1000C00093020008930200089302000893020008BC
:1000D00093020008930200089302000889180008A0
:1000E000930200089302000893020008930200089C
:1000F0009302000893020008930200080000000029
:1001000000000000930200080000000093020008B5
:100110009302000800000000930200089302000808
:10012000930200089302000893020008930200085B
:100130009302000800000000000000009302000885
:100140009302000893020008000000000000000075
:10015000000000000000000000000000000000009F
:1001600000000000000000000000000093020008F2
:1001700093020008000000000000000000000000E2
:1001800000000000930200080000000000000000D2
:10019000000000000000000000000000000000005F
:1001A0000000000000000000930200089302000815
:1001B0009302000893020008930200080000000068
:1001C0000000000093020008000000000000000092
:1001D000930200089302000800F002F800F03CF8D7
:1001E0000AA090E8000C82448344AAF10107DA4592
:1001F00001D100F031F8AFF2090EBAE80F0013F0A8
:10020000010F18BFFB1A43F001031847301F00000D
:10021000501F0000103A24BF78C878C1FAD852079E
:1002200024BF30C830C144BF04680C607047000070
:100230000023002400250026103A28BF78C1FBD8EF
:10024000520728BF30C148BF0B6070471FB501F08F
:1002500063FF1FBD10B510BD00F0CFF81146FFF7CA
:10026000F5FF01F0C5FC00F0EDF803B4FFF7F2FF75
:1002700003BC00F0F5F80000094880470948004732
:10028000FEE7FEE7FEE7FEE7FEE7FEE7FEE7FEE746
:10029000FEE7FEE704480549054A064B70470000A3
:1002A00055170008D9010008A0080020A00E002062
:1002B000A00A0020A00A0020032A40F2308010F09B
:1002C000030C00F0158011F8013BBCF1020F6244F1
:1002D00098BF11F801CB00F8013B38BF11F8013B82
:1002E000A2F1040298BF00F801CB38BF00F8013B2F
:1002F00011F0030300F04F80083AC0F0088051F875
:10030000043B083A51F804CBA0E80810F5E7121DA9
:100310005CBF51F8043B40F8043BAFF30080D207C8
:1003200024BF11F8013B11F801CB48BF11F8012B94
:1003300024BF00F8013B00F801CB48BF00F8012BB7
:1003400070474FF0000200B5134694469646203998
:1003500022BFA0E80C50A0E80C50B1F12001BFF47E
:10036000F7AF090728BFA0E80C5048BF0CC05DF8E4
:1003700004EB890028BF40F8042B08BF704748BF32
:1003800020F8022B11F0804F18BF00F8012B7047A6
:1003900070477047704710B5203AC0F00B80B1E845
:1003A0001850203AA0E81850B1E81850A0E81850AA
:1003B000BFF4F5AF5FEA027C24BFB1E81850A0E8B3
:1003C000185044BF18C918C0BDE810405FEA827CCD
:1003D00024BF51F8043B40F8043B08BF7047D207E4
:1003E00028BF31F8023B48BF11F8012B28BF20F885
:1003F000023B48BF00F8012B7047754600F02CF80F
:10040000AE4605006946534620F00700854618B001
:1004100020B5FFF73FFFBDE820404FF000064FF04A
:1004200000074FF000084FF0000B21F00701AC4629
:10043000ACE8C009ACE8C009ACE8C009ACE8C00948
:100440008D46704710B50446AFF300802046BDE8E6
:100450001040FFF70ABF0000004870473C0800202A
:1004600001491820ABBEFEE72600020070470000DD
:1004700070B5154D2C686868144904EA0102B2F1A0
:10048000005F20D10840B0F1006F1CD100F0E0FC0B
:1004900000F0C6F84FF0E021002008614861886153
:1004A000421E810001F1E021C1F88021C1F88022C3
:1004B000401C0828F5DB06480560686884F3088856
:1004C000BDE87040004770BD004000080000FE2FEE
:1004D00008ED00E0FEE77047144A117F1448012937
:1004E00001D003290FD1036823F40073036003686C
:1004F00043F400630360036823F40063036003684C
:1005000043F400730360022901D003290BD1016871
:1005100041F480510160016821F48051016001685B
:1005200041F48061016000201077704710000020C6
:1005300000200240C107054803D0416941F0040191
:100540004161416941F480314161704700200240BE
:1005500008494A69C0B222F4FC7242EAC00048610C
:10056000486940F002004861486940F480304861C1
:100570007047000000200240054910B54C6944F066
:1005800001044C610260BFF36F8F436010BD000037
:1005900000200240094A10B55469402344F48024E5
:1005A0005461EFF3108272B610C95B1E10C013F0D5
:1005B000FF03F9D182F3108810BD00000020024033
:1005C00070B5064600F056FA0546134C07E000BF2A
:1005D00000F050FA401BB04201D9032070BD2069E1
:1005E000C003F5D420694CF2FA3108400CD00B4915
:1005F0004A6802434A60810F01D0A169A16181006C
:1006000000D02061012070BD2069C00701D0012009
:100610002061002070BD000000200240100000207A
:10062000094810B54FF0FF318163002282630164F5
:10063000026481628262C162C2620163026300F08D
:1006400059FA002010BD00000010024070B50446A9
:1006500000F010FA0546601C02D0044840680444CB
:1006600000F008FA401BA042FAD370BD040000203D
:100670002DE9F05F054631488946017801290CD003
:100680000126804606704FF47A7B5846FFF798FFA4
:1006900007004FF0000A03D04BE00220BDE8F09FB6
:1006A00051464046C8F804A0254C226892050AD558
:1006B0002168490505D5216821F480612160032165
:1006C00009E0067708E02268520504D5216821F484
:1006D00080612160022101772868012805D04FF050
:1006E000FF31C9F80010AE681CE06868FFF722FF10
:1006F0005846FFF765FF0746606920F00400606117
:1007000015E030466968FFF723FF5846FFF758FFAA
:100710000700606920F4FD70606102D0C9F80060D4
:1007200005E0761CD5E902010844B042E9D8FFF79C
:10073000D3FE88F800A03846B0E700001000002083
:1007400000200240054901204A6942F000424A6106
:100750004969002900DA00207047000000200240AB
:100760002DE9FF5F254C0646904620789A460128E1
:100770000BD0012020704FF47A7B5846FFF720FF02
:1007800007004FF0000904D02AE0022004B0BDE8C1
:10079000F09F4846C4F80490194D2968490504D5CE
:1007A000286820F4806028600220207726B1012E7E
:1007B00009D0022E07D00CE0424653460198FFF7BD
:1007C000DBFE012612E041460198FFF7E3FE022E10
:1007D0000AD05846FFF7F4FE4FEA0007FFF77CFE09
:1007E00084F800903846D1E74FF480265846FFF74A
:1007F000E7FE07466869B0436861EFE71000002034
:1008000000200240064900204A69002A07DA054A0A
:100810008A60054A8A604969002900DA0120704728
:100820000020024023016745AB89EFCD2DE9F04F51
:10083000DFF80C92002301260325A9F1040B85B0F3
:100840000F2709F1040AABF1040EF1E006FA03FCEC
:1008500012EA0C027ED00C7904F00304012C01D0C2
:10086000022C20D1846800945C0005FA04F80494FA
:10087000009C24EA08040094D1F80C80049C08FA37
:1008800004F8009C48EA0408C0F80880446824EA98
:100890000C0491F804C0CCF3001C0CFA03FC4CEAE5
:1008A000040CC0F804C00C79E443A40702D18C689E
:1008B000012C0ED0C4684FEA430805FA08FC24EA6C
:1008C0000C04D1F808C00CFA08FC4CEA040CC0F87F
:1008D0000CC00C7904F00304022C16D1DC0800EBE8
:1008E000840CCDF808C0DCF820C05C074FEAD4685F
:1008F00007FA08F42CEA040C0C6904FA08F444EA38
:100900000C04DDF808C0CCF8204004684FEA430826
:1009100005FA08FC24EA0C0491F804C00CF0030C5E
:100920000CFA08FC4CEA040CC0F800C04C6814F443
:10093000403F7CD0434CD4F860C04CF0010CC4F86C
:1009400060C0246E23F0030C04F0010400943E4CBC
:10095000644400E06BE00294A4684FEA837C4FEAB1
:100960001C7807FA08FC24EA0C04B0F1904F06D07A
:10097000DFF8D8C0604505D14FF0010C20E04FF002
:10098000000C1DE0DFF8C8C0604502D14FF0020C3A
:1009900016E0DFF8C0C0604502D14FF0030C0FE055
:1009A000DFF8B4C0604502D14FF0040C08E0DFF876
:1009B000ACC0604502D14FF0050C01E04FF0060CD1
:1009C0000CFA08FC4CEA040C029CC4F808C0D9F8E4
:1009D0000040CC46D1F8048094435FEAC82800D593
:1009E0001443CCF80040DAF80040D446D1F8048033
:1009F00094435FEA882800D51443CCF80040DBF824
:100A00000040DC46D1F8048094435FEA883800D582
:100A10001443CCF80040DEF80040F446D1F80480DE
:100A200094435FEAC83800D51443CCF800405B1CFF
:100A30000C682246DC407FF409AF05B0BDE8F08FBA
:100A4000080401400010024000000140000400487A
:100A500000080048000C004800100048001400483E
:100A60000069084000D0012070470AB181617047D9
:100A700081627047014880687047000004000020D0
:100A80000248816842681144816070470400002078
:100A900010B50024032000F075F80F2000F008F8CE
:100AA00008B1012401E000F027F8204610BD000045
:100AB00070B50E4E05460024706898B14FF47A71F7
:100AC000B1FBF0F00A490968B1FBF0F000F068FCF6
:100AD00040B9102D06D200222946501E00F032F8EF
:100AE000356000E00124204670BD000004000020B5
:100AF00030000020704700000A4882B0016E41F0CB
:100B000001010166016E01F001010091816D41F06A
:100B100080518165806D00F08050009002B000F03F
:100B2000A1B8000000100240002809DB00F01F02FD
:100B3000012191404009800000F1E020C0F800113F
:100B400070470000F0B40E4B1B680C46C3F3022341
:100B5000C3F10705042D00D90425191D072901D269
:100B6000002300E0DB1E012606FA05F1491E2140A4
:100B700099409E40761E16403143F0BC01F016B8F5
:100B80000CED00E0064900F0070208684FF6FF038D
:100B9000184040EA0220034A1043086070470000F2
:100BA0000CED00E00000FA052B492C4B0A683221BD
:100BB0004A432B4940B1B0F5007F086829D020F4A2
:100BC000C06040F480602CE00868C0F34120022837
:100BD00004D051F8800F20F4807022E0D1F880001A
:100BE00020F48070C1F88000086820F4C06040F4F0
:100BF00000700860B2FBF3F0401C00E0401E4A6940
:100C0000520501D50028F9D1486940050AD50320CD
:100C10007047C0F34120022806D051F8800F40F4FD
:100C20008070086000207047D1F8800040F4807028
:100C3000C1F88000086820F4C06040F400700860CB
:100C4000B2FBF3F0401C00E0401E4A695205DBD5C0
:100C50000028F9D1D8E700003000002040420F0002
:100C6000007000400248816841F480418160704713
:100C7000007000402DE9F0470E4605004FF00007D8
:100C800025D0DFF8AC81D8F8000000F00F00B042AA
:100C90000CD2D8F8001021F00F013143C8F8001031
:100CA000D8F8000000F00F00B04210D12968614C64
:100CB000C80741F2883A5AD06868DFF87C91032867
:100CC00008D0022820682DD0400500282CDB012008
:100CD000BDE8F08720688001F9D5E06800F00302E4
:100CE000E068C0F30310401C032A19D0534A00BF28
:100CF000B2FBF0F0E268C2F306225043E268C2F3AE
:100D00004162521C5200B0FBF2F0484517D9A0686E
:100D100010F0F00F0CD0880711D5A86840B10EE094
:100D2000474AE5E78003D0E700F000F9484506D9D7
:100D3000A06820F0F00040F08000A0608027A0684C
:100D4000696820F003000843A060FFF793FE814626
:100D500006E000BFFFF78EFEA0EB090151453AD82F
:100D6000A068696800F00C00B0EB810FF2D1286830
:100D7000810714D5400703D5A06840F4E060A06067
:100D80002878000705D5A06820F4605040F4E060A2
:100D9000A060A068A96820F0F000084304E0802F5C
:100DA00003D1A06820F0F000A060D8F80010404601
:100DB00001F00F01B14216D9016821F00F01314352
:100DC0000160FFF757FE074607E000BFFFF752FE3E
:100DD000C11B514501D903207AE7D8F8000000F083
:100DE0000F00B042F2D12878400705D5A068E96825
:100DF00020F4E0600843A0602878000706D5A068CA
:100E0000296920F4605040EAC100A06000F08EF82B
:100E1000A1680C4AC1F30311515C01F01F01C840E5
:100E20000949086009480068BDE8F047FFF740BE7F
:100E3000002002400010024000B4C4040024F4006A
:100E400000366E012221000830000020040000203E
:100E500070B5FFF70FFE284C0546206840F48070FF
:100E6000206004E0FFF706FE401B02282FD8206810
:100E70004005F7D5606840F080406060FFF7FAFDFC
:100E800005460120A06041F2883604E0FFF7F2FD3C
:100E9000401BB0421BD8A068C0F381000128F5D1E7
:100EA00017491648086017480068FFF701FE08B1A7
:100EB000012070BD4FF4807020602060FFF7DAFDE4
:100EC000054606E0FFF7D6FD401B022801D90320A6
:100ED00070BD20688001F5D44FF48050E0600020A0
:100EE000A061401E2062D4F8940040F40000C4F8D1
:100EF0009400002070BD0000001002400024F400A7
:100F00003000002004000020054806490068896878
:100F1000054AC1F30221515C01F01F01C84070472E
:100F2000300000200010024032210008184910B59E
:100F30008868C0F381021748012A0BD08A68164BD3
:100F4000C2F38102022A06D08A68C2F38102032A10
:100F500003D0002010BD184610BDCA6802F003047B
:100F6000CA68C2F30312521C032C02D0B0FBF2F089
:100F700001E0B3FBF2F0CA68C968C2F3062250432D
:100F8000C1F34161491C4900B0FBF1F010BD000004
:100F9000001002400024F40000366E012DE9F843F1
:100FA00004007AD02078F84DC00747D0A868E968D7
:100FB00000F00C0001F003010C2802D0082817D023
:100FC00001E0032914D06068B0F5803F17D0B0F578
:100FD000A02F286817D020F480302860286820F4DB
:100FE000802028606068E0B1FFF744FD064614E009
:100FF0002868800322D560680028D2D01EE02868C7
:1010000040F48030EDE740F480202860F7E700BF2F
:10101000FFF730FD801B642870D828688003F7D55F
:101020000CE0FFF727FD064605E000BFFFF722FDB5
:10103000801B6428F0D828688003F7D420788007C4
:101040004CD5A868E96800F00C0001F003010C28F9
:1010500002D004280DD001E002290AD0E06800285F
:1010600028682BD040F480702860FFF703FD064607
:1010700019E02868400502D5E068002891D068682A
:10108000217C20F0FE4040EA01606860BF480068B3
:10109000FFF70EFD002800D120E072E1FFF7EAFC27
:1010A000801B0228B8D828684005F7D56868217CDD
:1010B00020F0FE4040EA016068600FE020F480709C
:1010C0002860FFF7D7FC064605E000BFFFF7D2FC1B
:1010D000801B0228A0D828684005F7D42078000794
:1010E00029D560690028D5F8940013D040F001009C
:1010F000C5F89400FFF7BEFC064606E090E000BF8E
:10110000FFF7B8FC801B022886D8D5F8940080072A
:10111000F6D510E020F00100C5F89400FFF7AAFC16
:10112000064604E0FFF7A6FC801B022878D8D5F815
:1011300094008007F6D42078400761D5A86D00267A
:10114000C00008D4A86D40F08050A865A86D0126A5
:1011500000F0805000908E480168C90511D40168E4
:10116000804641F480710160FFF784FC074604E08B
:10117000FFF780FCC01B022852D8D8F80000C00539
:10118000F6D5A068012815D00528D5F8900016D00E
:1011900020F00100C5F89000D5F8900020F0040080
:1011A000C5F89000A06841F28838B8B1FFF762FC3A
:1011B00007460EE0D5F8900040F00100F0E740F05F
:1011C0000400C5F89000F5E7FFF754FCC11B41454A
:1011D00026D8D5F890008007F6D50CE0FFF74AFC3A
:1011E000074604E0FFF746FCC11B414518D8D5F877
:1011F00090008007F6D41EB1A86D20F08050A8653D
:101200002078800629D5A0690028D5F8980013D049
:1012100040F00100C5F89800FFF72CFC064606E0F8
:1012200075E000BFFFF726FC801B02286FD8D5F8B9
:1012300098008007F6D510E020F00100C5F898006E
:10124000FFF718FC064604E0FFF714FC801B022899
:101250005DD8D5F898008007F6D4E069F0B3A968A6
:10126000C1F3810103295DD00228286820F0807035
:10127000286003D0FFF7FEFB04464BE0FFF7FAFBC4
:10128000064604E0FFF7F6FB801B02283FD82868DB
:101290008001F7D4F4E908016FF00F0202EB0111AD
:1012A0000843218A5204490802EB4151A26841EAED
:1012B00002210843217D4FF07E42490802EB416143
:1012C0000843217B40EAC160E968324A1140084383
:1012D000E860286840F08070286000E05EE0E86820
:1012E00040F08070E860FFF7C5FB044605E000BFF2
:1012F000FFF7C0FB001B022809D828688001F7D53A
:101300004CE000BFFFF7B6FB001B022802D9032008
:10131000BDE8F88328688001F4D4E8681E490840D5
:10132000E8603BE00128F3D0E868226A00F003019E
:10133000914226D1616A00F0F00209011039914210
:101340001FD1A26A00F4FE41B1EB022F19D194F82B
:101350002C2000F07841B1EBC26F12D1218E00F445
:10136000C00249084905A1F50011914209D194F83C
:10137000341000F0C06049084906A1F100718142B3
:101380000CD00120C4E7000000100240040000203F
:10139000007000400C809F01FCFFEEFE0020B7E7CC
:1013A00010B5401EB0F1807F01D3012010BD4FF079
:1013B000E02460610F21601700F0F8FB0020A061BD
:1013C00007202061002010BDFEE7000030B585B089
:1013D0000C460546FFF716FA0C494FF40040086129
:1013E00000220123CDE90023A5F1006504F2FF747A
:1013F00002ABE80AE10A83E8070004A96846FFF7A0
:1014000037F9FFF79FF905B030BD0000002002401A
:101410002DE9FC4115460E460746FFF7F3F9002477
:1014200018E000BF4FF0FF30CDE90000291B08296C
:1014300000D308216A46002003E02318F35C13540C
:10144000401C8842F9D3DDE9002339190020FFF759
:1014500087F90834AC42E5D3BDE8FC41FFF772B927
:10146000FEE7000070B586B014216846FEF769FFFC
:101470001948C16C41F00201C164C16C01F0020164
:101480000591C16C41F00401C164C06C012400F0FD
:1014900004000590202000258DE8310003200F4E28
:1014A000039069463046FFF7C1F940F204400090CE
:1014B00069460B48FFF7BAF91020CDE900056946E7
:1014C00002943046FFF7B2F9012000F04DF80020F9
:1014D00000F03EF806B070BD001002400008004861
:1014E00000040048002000F03FB8012000F03CB8A4
:1014F0002DE9F0470025DFF85090DFF850A00746AF
:101500002E464FF0800800BF28FA06F43C4201D076
:10151000012200E0002204214846FFF7A6FA01203C
:1015200000F016F810215046FFF79AFA012800D172
:101530002543002000F00CF8761CF6B2082EE3D309
:101540002846BDE8F0870000000400480008004875
:1015500008B1012200E000224FF480610148FFF74A
:1015600084BA00000004004808B1012200E0002213
:1015700020210148FFF779BA00080048FEE7000083
:101580000D4800B5C16C87B041F00201C164C06C68
:10159000142100F0020005906846FEF7D2FE80207C
:1015A0000090002001900120029069460348FFF757
:1015B0003DF907B000BD00000010024000040048E3
:1015C00030B5104887B0C16C41F00401C164C06CF3
:1015D000142100F0040005906846FEF7B2FE0122D7
:1015E000094D540321462846FFF73FFA0120002108
:1015F0000094CDE90101039169462846FFF716F9E9
:1016000007B030BD0010024000080048704770B5B8
:101610000D460646FFF72EFA044605E0304600F078
:1016200007F908B1002070BDFFF724FA001BA8429B
:10163000F4D3012070BD2DE9F8438846002105460A
:10164000C8F80010914611466846FFF7E0FFC8BB96
:101650009DF80000182817D006DC012809D00228C0
:1016600009D0042841D10CE0412816D061283CD192
:1016700013E0802401E04FF4806401262870671D88
:1016800014E00220BDE8F88349466846FFF7BFFF33
:10169000C0B99DF80000182827D10320F2E7A81947
:1016A0004946FFF7B4FF68B9761CB6B2BE42F6D31E
:1016B000A978687881F0FF01884216D1EE1C274690
:1016C000002004E011E016F8011B00F001F97F1E74
:1016D000F9D2002100F0FCF8002100F0F9F82919F6
:1016E000B1F8031049BA814201D00120CAE70020B5
:1016F000C8F80040C6E77047FFF7C2B910B594B00C
:1017000038216846FEF71DFE14210EA8FEF719FECB
:101710000020FFF749FA0120009000040190022008
:101720000324CDE907045521CDE909010B900C9064
:101730000D906846FFF732FC0F20CDE90E04002023
:1017400010901190129004210EA8FFF793FA14B094
:1017500010BD00000248016841F47001016070474B
:1017600088ED00E010B586B014216846FEF7E9FD6B
:101770002B4CE06C40F00400E064E06C00F00400EE
:101780000590A06D40F48020A065A06D694600F42E
:10179000802005904FF440600090022001900120CD
:1017A000029003200390072004901E48FFF73EF8A4
:1017B000A06B40F48020A063A06B20F48020A06385
:1017C000FFF7A2FB4FF4E13100F56140B0FBF1F10E
:1017D00001B90121144A002010805080134A106082
:1017E000131D18601B1D1860181D01600F494FF074
:1017F000FF30203108600D490820183108602C2086
:101800001060106840F001001060002201212720C4
:10181000FFF798F92720FFF787F906B010BD000001
:10182000001002400008004800000020004800406E
:1018300008490A884B889A4201D100207047064A1D
:101840004B88D25C02704888401CC0F30900488075
:1018500001207047000000203400002003490A687E
:101860001206FCD501490C31086070471C48004045
:1018700000B5034603E000BFFFF7F0FF5B1C1878DC
:101880000028F9D100BD000070B50E4A10680007AD
:1018900002D00F20111D08600A4C0B480B4D083474
:1018A000116889060CD52168CBB201884688491C8D
:1018B000C1F30901B142F3D00688AB550180EFE7CF
:1018C00070BD00001C4800400000002034000020D3
:1018D00041F4807141F2210240004900CB0500D55E
:1018E000401CC30300D55040CB03F5D580B27047F0
:1018F000FEE7FFF7B7BD70B515460E46044600F08B
:1019000092F8FFF7EFFD0220FFF7F2FDC4F3074066
:10191000FFF7EEFDC4F30720FFF7EAFDE0B2FFF7A3
:10192000E7FD002404E0305DFFF7E2FD641CA4B293
:10193000AC42F8D3FFF7D9FDBDE8704000F059B8CC
:1019400070B515460E460446FFF7CCFD0320FFF7A1
:10195000CFFDC4F30740FFF7CBFDC4F30720FFF72B
:10196000C7FDE0B2FFF7C4FD002404E0FF20FFF74D
:10197000BFFD3055641CAC42F8D3BDE87040FFF7A2
:10198000B4BD70B50C460546FFF7ACFD9F20FFF7D0
:10199000AFFDFF20FFF7ACFD2870FF20FFF7A8FD8B
:1019A0004FF6FF7101EA00202080FF20FFF7A0FD25
:1019B000218808432080BDE87040FFF796BD10B530
:1019C000044600F030F8FFF78DFD2020FFF790FD72
:1019D000C4F30740FFF78CFDC4F30720FFF788FD31
:1019E000E0B2FFF785FDFFF780FDBDE81040AFF3E3
:1019F000008070B5FFF73EF80446FFF773FD052041
:101A0000FFF776FD4FF4FA7504E0FFF733F8001B9B
:101A1000A84204D8FF20FFF76BFDC007F5D1BDE851
:101A20007040FFF762BD10B5FFF75CFD0620FFF7C1
:101A30005FFDBDE81040FFF758BD2DE9F04100F50E
:101A4000805617468846000502D13046FFF7B7FF9B
:101A5000F019310B401EB1EB103F03D06FF30B00B8
:101A6000FFF7ADFF00240DE03019C1B2C1F580755C
:101A7000391BA94200D20D46AAB208EB0401FFF7B8
:101A80003AFF2C44BC42EFD30020BDE8F0810000B7
:101A90002DE9F74F002482B007469146A24626461C
:101AA000254643201460FFF7D9FEDFF8FC8059E09B
:101AB00098F801000024414610B98A78FF2A1FD007
:101AC0006A1CD2B2904249D10098D9F800208346CE
:101AD0006D1C22B13044904201D9A2EB060B039B4E
:101AE0005A4608F1030138469847A0B31820FFF77B
:101AF000B5FE1820FFF7B2FE012005B0BDE8F08F5B
:101B0000C87810B108F1030105E00620FFF7A6FE32
:101B10000020F2E7491C08780028FBD100226FF072
:101B20002F0304E002EB820203EB4202024411F8AD
:101B3000010F202801D00028F4D1BAF1000F03D101
:101B40004FF0010AC9F800200620FFF787FE0A209F
:101B5000FEF77CFD25E0FFE75F445E445FF0060092
:101B6000FFF77CFE4FF47A7269460F48FFF763FD7A
:101B700000289DD00228E7D003280BD0641CE4B2D3
:101B8000052C09D91820FFF769FE1820FFF766FE1B
:101B90000320B2E70220B0E7BAF1000F01D0152010
:101BA000DEE74320DCE70000340400200907090ECB
:101BB000002804DB00F1E02080F80014704700F0FA
:101BC0000F0000F1E02080F8141D7047BFF34F8F25
:101BD00005480168054A01F4E06111430160BFF363
:101BE0004F8F00BFFDE700000CED00E00400FA0598
:101BF000ADF50E7DFEF74CFFFFF780FDFFF7E0FC33
:101C0000FFF7B0FDFFF775FEFFF7BAFC8021A8488B
:101C1000FEF726FF002813D00024A6A0FFF728FE19
:101C2000AEA0FFF725FEB5A0FFF722FE8DA98CA878
:101C3000FFF7A7FE9DF83002EF2803D0B8A002E01E
:101C40000124EAE7BBA0FFF713FE142201A900203C
:101C5000FFF776FEBB4D0198A8420FD0BAA0FFF760
:101C600007FE142101A8FEF76CFB00200195FFF789
:101C7000A6FE142201A90020FFF73DFE9DF81400E6
:101C8000DFF8E8A24FF000084FF4807903283DD335
:101C9000049800282DD0B6A0FFF7EAFD554650461F
:101CA0000499FFF793FB00244E460FE0021BB2425B
:101CB00000D93246174606A904F58020FFF740FEFA
:101CC0003A4606A96019FFF7A3FB3C440498A042DA
:101CD000ECD8B1A0FFF7CCFD049802908DF81480E9
:101CE0000020FFF76CFE142201A90020FFF703FE7D
:101CF000BEE0AEA0FFF7BCFD8DF814800020FFF71A
:101D00005EFE142201A90020FFF7F5FD9DF81500E5
:101D1000012826D09DF81600012801D0002C7DD086
:101D200014B1B2A0FFF7A4FDB5A0FFF7A1FD444692
:101D30008DF816800020FFF742FE142201A9002032
:101D4000FFF7D9FD0694002406AAB5490020FFF745
:101D50009FFE002873D0022802D0641C032CF3DB02
:101D600080E0B0A0FFF784FD0298C0B3B5A0FFF7F4
:101D70007FFD02980027049000F6FF70050B3C469B
:101D80004FF4802605E000BF06EB0430FFF717FE96
:101D9000641CAC42F8D31FE0C41B4E46B44200D9C9
:101DA0004C46224607EB0A0106A8FEF785FA0025F5
:101DB0000DF1180BB1460CE0661B4E4500D94E469E
:101DC0007819B2B20BEB050100F58020FFF793FD07
:101DD0003544A542F0D327440298B842DCD8A0A0ED
:101DE000FFF746FD554650460399FFF7EFFA0024EA
:101DF0004E460FE0021BB24200D93246174646A9B2
:101E000004F58050FFF79CFD3A4646A96019FFF79C
:101E1000FFFA3C440398A042ECD800E02DE0029089
:101E20008DF815808DF814800020FFF7C8FD14226E
:101E300001A90020FFF75FFD8FA017E0FFE70698DC
:101E400080B195A0FFF714FD01208DF815000698CC
:101E500003900020FFF7B3FD142201A90020FFF733
:101E60004AFD02E096A0FFF703FD9DA0FFF700FDED
:101E70006420FEF7EBFBFFF7A9FE9DF81400401C61
:101E80008DF814000020FFF79AFD142201A900200C
:101E9000FFF731FD6420FEF7D9FBFEF7E9FA94A0C5
:101EA000FFF7E6FC4FF47A742046FEF7CFFBFBE722
:101EB000000400480D0A3D3D3D3D3D3D3D3D3D3D5D
:101EC0003D3D3D3D3D3D3D3D3D3D3D3D3D3D3D3D42
:101ED0003D3D3D3D3D3D3D0D0A000000202020538D
:101EE000544D33324734333120426F6F746C6F611D
:101EF0006465722056322E300D0A00003D3D3D3D96
:101F00003D3D3D3D3D3D3D3D3D3D3D3D3D3D3D3D01
:101F10003D3D3D3D3D3D3D3D3D3D3D3D3D0D0A0091
:101F2000573235513634204E6F7420466F756E64CB
:101F3000210D0A00573235513634205265616479DB
:101F40002E0D0A005C5A5A5A426F6F74496E666FC2
:101F500020696E76616C69642E20496E69746961CE
:101F60006C697A696E672E2E2E0D0A0000400008FB
:101F7000426F6F74204661696C6564203320746918
:101F80006D65732120526F6C6C696E6720626163AE
:101F90006B2E2E2E0D0A0000526F6C6C6261636B0B
:101FA0002073756363657373210D0A00426F6F744C
:101FB000204661696C656420332074696D65732106
:101FC000204E6F206261636B757020617661696C71
:101FD00061626C652E20436C656172696E67206377
:101FE0006F756E742E2E2E0D0A00000050423720A1
:101FF0004C4F57206465746563746564212000004C
:1020000057616974696E6720666F7220592D4D6F34
:1020100064656D207570646174652E2E2E0D0A0046
:102020003B1A00084E6577204F5441206465746563
:10203000637465642E205570646174696E672E2E1A
:102040002E0D0A004261636B696E67207570206314
:10205000757272656E74206170702E2E2E0D0A00DE
:10206000466C617368696E67206E65772061707079
:102070002E2E2E0D0A0000005570646174652063D9
:102080006F6D706C65746521205265626F6F746945
:102090006E672E2E2E0D0A000D0A55706461746550
:1020A0002072656365697665642E20526561647986
:1020B00020666F7220696E7374616C6C2E0D0A005D
:1020C0000D0A557064617465206661696C656420F1
:1020D0006F722074696D6564206F75742E0D0A002F
:1020E0005265626F6F74696E672E2E2E0D0A0000A6
:1020F0004A756D70206661696C656421204E6F20A1
:1021000076616C6964206170706C69636174696F79
:102110006E2E0D0A000000004FF04070E1EE100A34
:1021200070470000000000000000010203040607E1
:102130000809000000000102030400005C210008FF
:102140000000002034000000140200089021000864
:10215000340000206C0E0000300200080000000077
:10216000100000000100000000000000000000005E
:10217000000000000000000000000000010000005E
:102180000000000000000000000000000024F40037
:04000005080001D915
:00000001FF
