:020000040800F2
:10400000B8070020ED410008E1910008C5710008E3
:10401000FD7A00084D5400081999000800000000BE
:10402000000000000000000000000000C592000831
:104030005F54000800000000E3910008A594000808
:10404000074200080742000807420008B99200082A
:10405000074200080742000807420008074200081C
:10406000074200080742000807420008074200080C
:1040700007420008074200080742000807420008FC
:10408000074200080000000007420008074200083D
:1040900007420008074200080742000807420008DC
:1040A00007420008074200080742000807420008CC
:1040B000C5940008074200080742000807420008AC
:1040C00007420008074200080742000807420008AC
:1040D000074200080742000807420008319800081C
:1040E00007420008E591000807420008074200085F
:1040F00007420008074200080742000800000000CD
:10410000000000000742000800000000074200080D
:1041100007420008000000000742000807420008AC
:10412000074200080742000807420008074200084B
:1041300007420008000000000000000007420008DD
:1041400007420008074200080000000000000000CD
:10415000000000000000000000000000000000005F
:1041600000000000000000000000000007420008FE
:1041700007420008000000000000000000000000EE
:1041800000000000074200080000000000000000DE
:10419000000000000000000000000000000000001F
:1041A000000000000000000007420008074200086D
:1041B000074200080742000807420008000000000C
:1041C000000000000742000800000000000000009E
:1041D0000742000807420008DFF80CD000F07AFC24
:1041E00000480047F5B30008B8070020064880479C
:1041F00006480047FEE7FEE7FEE7FEE7FEE7FEE7CC
:10420000FEE7FEE7FEE7FEE7A9940008D9410008B3
:1042100040EA01039B0703D009E008C9121F08C048
:10422000042AFAD203E011F8013B00F8013B521EC8
:10423000F9D27047D2B201E000F8012B491EFBD23F
:1042400070470022F6E710B513460A4604461946A1
:10425000FFF7F0FF204610BD10B5002200E0521C11
:10426000835C8C5CA34201D1002BF8D1D8B2E1B2BF
:10427000401A10BD30B505460020034600E05B1C27
:10428000934205D2EC5CC85C201A01D1002CF6D117
:1042900030BD00000FB400B58DB010A909900B908F
:1042A00000914FF0FF300A9000200C9005480690D6
:1042B000054807906A4609A80F9900F021FB0DB048
:1042C0005DF814FB1D4900083B4900082DE9FF5F1C
:1042D0001D464FF0FF3BD5E9014691465F464FF042
:1042E0000008A9697F1C01988847296A8246884787
:1042F0000028F6D1BAF1FF3F0CD024F4C064002EA0
:1043000019DD600614D5BAF12B0F09D0BAF12D0FC3
:104310000ED103E0584604B0BDE8F09F44F4806439
:10432000A9697F1C01988847761E8246002E02DD0F
:10433000BAF1300F03D0B9F1000F26D032E0A969ED
:10434000761E44F400747F1C019888478246002E34
:1043500005DDBAF1780F06D0BAF1580F03D0B9F1E4
:10436000000F10D01EE0B9F1000F02D0B9F1100F0C
:1043700018D1A969761E24F400747F1C019888471F
:104380008246102002E0082000E00A20814609E071
:1043900008FB0908A969761E44F400747F1C019883
:1043A00088478246002E05DD4946504600F094FAC3
:1043B0000028EDDAE96901988847A00502D46FF07A
:1043C0000100A8E7E00725D1600613D5600502D5F6
:1043D000C8F1000000E0404629680A1D2A6009680B
:1043E000220501D5087015E0220701D5088011E0EB
:1043F00008600FE02868011D29600068210502D5CA
:1044000080F8008006E0210702D5A0F8008001E0D6
:10441000C0F8008038467EE72DE9FE4F804681EAED
:104420000300C00F0C46009021F0004123F000452E
:10443000B8EB0200A94105D24046214690461C46F1
:104440000B46024623F00040104347D0270DC7F328
:104450000A00C3F30A510290401A019040286BDA17
:10446000C3F3130040F4801B0098924620B1002350
:10447000D2EB030A63EB0B0B01985946C0F14002E3
:10448000504600F0F8F906460D4650465946019A46
:1044900000F010FA10EB08006141002487EA115285
:1044A00084EAE7731A4340D0009A62B3019A012A62
:1044B0004FEA075215DC001B61EB02014FF000428E
:1044C00002EA0752CDE90042001C41F58011324654
:1044D0002B4600F096FA03B0BDE8F08F4046214627
:1044E000F9E7001B61EB0201001C41F58013001885
:1044F0005B412018A2F5001747EB030140EAD57095
:10450000B6196D4111E06D084FEA360645EAC075EF
:104510004FEA0752001B61EB0201001C41F58011BC
:1045200049084FEA30000019514132462B4603B08A
:10453000BDE8F04F00F056BA009801224000002379
:10454000D0EB020263EBE073009821464FEAE0747F
:10455000B8EB000061EB0401E9E783F000435BE79F
:1045600081F0004158E72DE9FE4F81EA030404F091
:10457000004421F0004100944FF0000B23F0004371
:1045800050EA01045ED052EA03045BD0C3F30A543C
:10459000C1F30A552C44A4F2F3340194A0FB025455
:1045A000C1F3130141F48011C3F3130343F48013E7
:1045B00001FB024400FB034E840A970A44EA81543B
:1045C00047EA8357A4FB076802958D0A05FB078518
:1045D0004FEA932C04FB0C542705029D4FEA065822
:1045E00047EA1637B5EB08056EEB070C870E920EFF
:1045F00047EA811742EA8312A7FB0201B6EB0B01DF
:1046000064EB00042B0D43EA0C335E1844EB1C50A2
:10461000DA465146E7FB0201C5F313044FEA0B33B8
:1046200043EA14534FEA0432019C43EA0603A4F11F
:104630000C040294009CCDE900B400F0E2F903B050
:10464000BDE8F08F00200146F9E72DE9F04D81EA41
:10465000030404F0004B21F0004514464FF0000A1B
:1046600023F0004150EA050220D054EA01021DD097
:10467000C5F30A570246C5F31303C1F31300C1F390
:104680000A5640F4801543F48013A7EB0608101B6C
:10469000D64608F2FD3873EB050002D308F1010895
:1046A00001E092185B41B8F1000F03DA00200146E7
:1046B000BDE8F08D00204FF48011064684460EE0E0
:1046C000171B73EB050705D3121B63EB05030643AA
:1046D0004CEA010C49084FEA300092185B4150EA5D
:1046E0000107EDD152EA030012D082EA040083EA06
:1046F0000501084305D0101BAB4106D2012200235F
:1047000006E000224FF0004302E06FF00102531078
:104710001AEB06004CEB085110EB0A0041EB0B01C1
:10472000BDE8F04D00F05EB900F0004230F000400E
:104730000AD0C10D01F56071C0F3160042EA0151C3
:10474000C20840071143704700200146704700002F
:1047500030B5041E71F1000404DB4FF00044404208
:1047600064EB0101141E73F1000405DB1C464FF0DD
:104770000043524263EB04038B4208BF824230BDC8
:1047800030B5041E71F1000404DB4FF000444042D8
:1047900064EB0101141E73F1000405DB1C464FF0AD
:1047A0000043524263EB0403994208BF904230BD7C
:1047B00001F0004330B421F0004150EA010206D07C
:1047C0000A0DA2F56072C1F31301002A02DC30BCAD
:1047D00000207047440F44EAC104C100E01830BC17
:1047E00000EBC25000F0C7B830B50B4601460020C0
:1047F0002022012409E021FA02F59D4205D303FAA3
:1048000002F5491B04FA02F52844151EA2F1010223
:10481000F1DC30BD2DE9F05F0546002092469B4655
:1048200088460646814640241BE0284641464746C6
:10483000224600F02FF853465A46C01A914110D331
:1048400011461846224600F016F82D1A67EB0108AB
:104850004F4622460120002100F00DF817EB000919
:104860004E41201EA4F10104DFDC484631462A46B1
:104870004346BDE8F09F202A04DB203A00FA02F10B
:10488000002070479140C2F1200320FA03F319433E
:1048900090407047202A04DB203A21FA02F00021E0
:1048A000704721FA02F3D040C2F120029140084340
:1048B00019467047202A06DBCB17203A41FA02F04E
:1048C00043EAE07306E041FA02F3D040C2F120026D
:1048D00091400843194670473A2800D2303820F0FA
:1048E0002002412A01D3A2F13700884201D34FF0C0
:1048F000FF30704702681144137801601846704712
:10490000D1600449516104491162002111611146CD
:1049100000F0F8B8F5480008F94A0008426842B1CA
:10492000016811F8013B23B1521EC0E9001218467C
:1049300070470121C160881E704742685AB1C36840
:10494000016843B983688B4205D0491E521CC0E9F7
:104950000012002070474FF0FF3070477CB50023F5
:10496000CDE900330546684600F07DFA69462846E1
:1049700005F0C2FF7CBD0029A8BF7047401C49005C
:1049800008BF20F00100704710B4B0FA80FC00FAB4
:104990000CF050EA010404BF10BC704749B1CCF1DF
:1049A000200421FA04F411FA0CF118BF012121436B
:1049B0000843A3EB0C01CB1D4FEA00614FEA102026
:1049C00042BF002010BC704700EBC35010440029C8
:1049D000A4BF10BC7047401C490008BF20F0010074
:1049E00010BC704710B5141E73F1000408DA401CA7
:1049F00041F1000192185B411A4301D120F00100FE
:104A000010BD2DE9F04D92469B4611B1B1FA81F2ED
:104A100002E0B0FA80F220329046FFF72CFF044605
:104A20000F4640EA0A0041EA0B0153465A46084342
:104A300013D0114653EA010019D0C8F14002504684
:104A4000FFF728FF05460E46504659464246FFF7F7
:104A500012FF084305D0012004E020463946BDE896
:104A6000F08D0020054346EAE0762C4337430A9850
:104A70006305E40AA0EB08000022FD0A44EA47545B
:104A80000A3002D500200146E9E701051019694105
:104A9000DDE9084500196941BDE8F04DA2E7C1F321
:104AA0000A52C1F3130140F2FF3341F480119A42DC
:104AB00002DA00200146704740F233439A42A2F2E4
:104AC000334202DC5242FFF7E5BEFFF7D4BE0020BE
:104AD00070470000064C074D06E0E06840F0010317
:104AE00094E8070098471034AC42F6D3FFF778FB00
:104AF00000BD000820BD0008C0B24FF4F05100F026
:104B0000E5B900002DE9F34F8BB04FF0000801F13B
:104B10000C000C464FF0010B46460DF1080A0190BF
:104B20006269012101989047051E2DD0252D2CD0BA
:104B3000216A8847C0B16269012101989047216AC2
:104B400088470028F7D1411E62690198904700E02C
:104B5000761CA1690B988847216A88470028F7D1FD
:104B6000E1690B988847DBE7A1690B9888470746FE
:104B7000A84201D1761CD3E7E1690B9888477F1CD6
:104B800002D1B8F1000F6FD046E1002762693D46BF
:104B90003946019890472A2804D162690121019879
:104BA00090470125DFF884926269012101989047BE
:104BB000A0F130010A290AD24F45E5DC07EB870155
:104BC00000EB4107303FDFD445F01005ECE7E90684
:104BD00001D46FF000476C280AD04C2814D0682804
:104BE00015D06A280DD074281CD07A281AD01DE060
:104BF00062690121019890476C2802D045F00405B4
:104C000014E045F002050DE045F020050AE0626978
:104C1000012101989047682802D045F0080505E079
:104C200045F400656269012101989047C4E9015784
:104C300065283DD019DC58287AD00CDC452837D0BF
:104C400004DC252826D0412831D131E046282FD058
:104C500047282CD12CE05B2877D0612828D0632806
:104C60007CD0642823D15AE0D0E06F2848D008DCFB
:104C700066281DD067281BD0692821D06E2816D140
:104C800027E0702845D0732868D0752847D0782849
:104C90000DD14DE0A1690B988847054625283FF4C2
:104CA00069AFE1690B9888476D1C3FF46AAFB3E0C8
:104CB00023466A466FF001000B9900F0AFF99EE0C1
:104CC00045F040006060A80723464FF0000236D44C
:104CD0003EE0E8077FF447AF2068011D21600068CF
:104CE000290501D506701BE7290701D5068017E7BE
:104CF000A90703D5F117C0E9006111E706600FE7C6
:104D000045F040006060A80723464FF0080216D423
:104D10001EE040F60E0125EA0100606016E045F055
:104D200040006060A80723464FF00A0207D40FE056
:104D300045F040006060A80708D5234610226FF0B8
:104D400001000B99AFF3008059E007E023461022E1
:104D50006FF001000B99FFF7B9FA50E04FF000092E
:104D60004F464B46632802D05B2806D040E0E80659
:104D700001D40120A06001273AE062690121019875
:104D800090475E2805D14FF00109626949460198B4
:104D90009047216939B900210A46534643F821203A
:104DA000491C0829FADBB0B3216969B9C11700EBC6
:104DB000D16253110AEB830122F01F02821A0120F3
:104DC0000B68904003430B60626901210198904792
:104DD0005D28E8D1B9F1000F09D00020514651F803
:104DE0002020D24341F82020401C0828F7DB02ABEA
:104DF000224600976FF001000B99AFF30080002866
:104E00000CDA401C08D1BBF1000F05D04FF0FF3089
:104E10000DB0BDE8F08FFFE74046F9E7E90701D1A3
:104E200008F1010806444FF0000B79E6CCCCCC0C1D
:104E30000FB4002300B589B00CA900910B996FF055
:104E40000042CB601E4B06931E4B07930423CDE913
:104E500001321D4A089202466B46002000F0DEF83F
:104E600009B05DF814FB70B586B006464FF0FF3010
:104E70000091CDE90101002015460C460490324610
:104E8000694604A8FFF7D4FF02460498211825B10B
:104E900008B1084600E020462860049800280DD09C
:104EA000002A02DD0098884208D0081B0094CDE952
:104EB00001043246694604A8FFF7BAFF06B070BD88
:104EC0001D4900083B490008F94A00087F2801D91C
:104ED000002208E0064A02EB5002C007127800D117
:104EE000120902F00F0201209040084070470000B4
:104EF00064BC00082DE9FF4F087883B09946FF286D
:104F000005D0491C2D2804D00024002008E00020F2
:104F10000BE00124F9E700EB800003EB4000491CA3
:104F20000B78FF2BF7D104B1404200230293147891
:104F300019461D462D2C01D02B2C04D1521C2D2C92
:104F400013D000240294AA461478FF2C0FD00A250F
:104F5000A3FB057801FB05814FF0000C03FB0C114E
:104F6000521CE3194AEB0101EEE70124EAE7814410
:104F700053EA010002D019F5C87F06DA0398002130
:104F8000C0E9001107B0BDE8F08F0025AE4E2F46F6
:104F9000DFF8B882184600F05DF9CDE90001B9F1FB
:104FA000000002DAC9F1000400E004460023A74A29
:104FB0001AEB030B42EB045A12E0E00707D02A4633
:104FC000334638464146FFF7CEFA074688462A461A
:104FD000334610461946FFF7C6FA05460E466410DA
:104FE000002CEAD1DDE90001B9F1000F5A46534621
:104FF00006DAFFF72AFB3A464346FFF726FB05E0B1
:10500000FFF7B1FA3A464346FFF7ADFA029A0AB102
:1050100081F00041039AC2E90001B3E72DE9FF4F97
:105020001F468DB0D7E901464FF0FF382E20454688
:105030004FF000090B90B9696D1C0E988847396ACA
:10504000824688470028F6D1BAF1FF3F0AD024F4FF
:10505000D064002E11DDBAF12B0F08D0BAF12D0F5C
:105060000BD102E0404611B08DE744F48064B96989
:105070006D1C0E9888478246761E6946600501D5EC
:105080002D2000E02B208DF8000001F1010B0DF127
:10509000200809E0B9696D1C0E98884782460F9870
:1050A00044F40074761E0560002E02DDBAF1300F64
:1050B000F0D00B998A453ED144F0800406E00F9968
:1050C000681CA9F1010944F400740860B9696D1CF9
:1050D000761E0E98884782463028F0D02BE00B9938
:1050E0008A4505D1200603D444F08004761E18E0DA
:1050F000504605F08DFD08B30DF11301761E44F402
:1051000000748B4508D2AAF130000BF8010B200681
:1051100007D5A9F1010003E0200602D409F101003E
:105120008146A00502D50F99681C0860B9696D1CFD
:105130000E9888478246002ED1DC53E0002E51DDC8
:10514000BAF1650F02D0BAF1450F4BD1A00549D590
:10515000B9696D1C24F44074761E0E988847824607
:10516000002E0CDD2B2804D0BAF12D0F07D144F40A
:105170008074B9696D1C0E9888478246761EE005DA
:1051800001D52D2100E02B2108F8011BCDF82C8042
:1051900021E00DF12901761E44F4007488450CD2FB
:1051A000AAF1300010F0FF0088F8000002D10B993E
:1051B000884509D908F1010806E0E00501D5244831
:1051C00001E042F20F708146B9696D1C0E98884764
:1051D00082460F980560002E04DD504605F018FD4C
:1051E0000028D6D1F9690E988847FF208BF8000077
:1051F00088F800000020069007904B466A4608A9F0
:1052000006A8FFF777FEA00502D46FF001002AE799
:1052100014F0240F0AD0E00714D1DDE90612386833
:10522000031D3B600068C0E900120BE0DDE90601E8
:10523000FFF7BEFA0146E00704D13868021D3A6064
:105240000068016028460EE7000014400000F03FAF
:10525000F1D8FFFF0EB540F2334202920022CDE9B1
:1052600000221346FFF7CDFB03B000BD10EE100A7D
:105270001E49DFED1F0A884235DD10EE100A1D4978
:10528000884202DB9FED1C0A70471C4A002000BFC9
:1052900002EB800191EC021AB4EEC10AF1EE10FAB1
:1052A0001EDBB4EEE10AF1EE10FA19D830EE410A35
:1052B00071EEC11A1149303180EE211A0A5C08449E
:1052C00000EE902A407802EE100AF8EE600AB8EE7E
:1052D000422AB0EE600A72EE601A01EE210A7047AF
:1052E000401C0B28D4D3B0EE600A70470000604128
:1052F00000000000666686410000C842B0BA00089F
:1053000010B50446012000F009F8204600F02CFDFD
:10531000BDE81040002000F001B8000002464FF444
:105320000071014800F051BE000400482DE9F04131
:1053300086B014216846FEF784FF1D48C16C41F019
:105340000401C164C16C01F004010591C16C41F01C
:105350000201C164C06C012200F00200DFF8548039
:10536000550305902946404600F02FFE01260024F3
:105370000095CDE9016469464046039400F006FDBE
:105380000220CDE902042F110B4CCDE900766946CD
:10539000204600F0FBFC01222946404600F015FEA5
:1053A00000223946204600F010FE06B0BDE8F0812C
:1053B00000100240000800480004004810B500F04A
:1053C0000FF800F0FDFEBDE81040FFF7AFBF000092
:1053D00002464FF40051014800F0F7BD00080048B4
:1053E00010B594B038216846FEF72BFF14210EA8A3
:1053F000FEF727FF002000F085FE08B100F030F82E
:10540000012000900004032406210190CDE9084109
:1054100002205521CDE90A1007900C900D906846A6
:1054200001F0A2F908B100F01BF80F20CDE90E043D
:10543000002010901190129005210EA801F04AF85A
:10544000002801D000F00CF814B010BDFEE788422F
:1054500001DA084670479042FCDD104670477047FD
:1054600072B6FEE710B52DED068BB0EE618AF0EE58
:10547000428AB0EE629AF0EE409AB0EE60AAF0EE88
:1054800041AA00F01BFC00F069FCB0EE403AF0EEDF
:10549000492AB5EEC03AB0EE682AF0EE481AB0EEEE
:1054A0006A1AF0EE4A0AB0EE690AF1EE10FA07D273
:1054B00000F0F3FBBDEC068BBDE8104000F025BC0E
:1054C000BDEC068BBDE8104000F0E7BB10B504460C
:1054D000034900F031F82046BDE8104000F002B862
:1054E0007CBA0008134B10B51ECB00F1180CB2EEBD
:1054F000040A8CE81E0000218162C16201634163DD
:1055000081630122C16380F8402080ED110A80F898
:105510004C10016541658165C1650166416680F891
:105520006810C1664269026780F87410C0E91E12F3
:1055300010BD0000A0BA000870B504462DED028B26
:105540000D460878207091ED010A9FED348A84EDB4
:10555000010A91ED020AB5EEC00AF1EE10FA02D18D
:10556000B0EE480A03E0DFED2E0A20EE200AF6EE48
:10557000008A84ED020A95ED030AB5EEC00AF1EE49
:1055800010FA02D1B0EE480A09E000F055FA05F031
:10559000B3F820EE280AF0EE000A04F07BFD84ED5B
:1055A000030A95ED040AB5EEC00AF1EE10FA02D135
:1055B000B0EE480A09E000F03FFA05F09DF820EE51
:1055C000280AF0EE000A04F065FD84ED040A68691B
:1055D00060612067E06795ED010AB5EEC00AF1EE63
:1055E00010FA01D0686918B984ED038A84ED048A41
:1055F00094F8400018B994ED010A84ED110A94ED75
:10560000010AF2EE040A30EEC00AF0EE080A80EE5B
:10561000201A84ED121ABDEC028B70BDFFFF7F7F54
:1056200048E17A3F2DE9F05F04462DED0A8BF0EE5C
:10563000619AF0EE42AAB0EE62BAB0EE409AF0EE95
:10564000C01AC0ED0A9AC0ED0BAA80ED0CBA90ED1D
:10565000020AB0EE64AAF0EE43BAF4EEC01AB0EE5D
:1056600063CAF0EE44CAF0EE608AB0EE418AF1EE11
:1056700010FA4FF0010B0DDCF0EEE80AF4EEC00A70
:10568000F1EE10FA06DCF0EEC80AF4EEC00AF1EE14
:1056900010FA0DDDD4E90870D4E90656804620469C
:1056A000FFF720FF04F1180080E8E00184F84CB017
:1056B00094F840000025C8B1D4ED110A94ED120A07
:1056C00040EE4A0AC4ED110A94ED010AF4EEC00A54
:1056D000F1EE10FA04D3B5EEC00AF1EE10FA05D1DE
:1056E00084ED110A84F8405084F84C50204601F0B3
:1056F000D7FC04F13400A84680EC030AC146CA4630
:1057000084F868B0B0EE4B1AF0EE6A0AB0EE690A9F
:1057100000F0DBFAE0BBB0EE4B1AF0EE6A0AB0EE36
:10572000690A00F0F2FA04F13400D0EC031AFFF732
:1057300099FE04F1500080EC030A94F8400040B94F
:1057400000F0D6FAD4ED030AB4EEE00AF1EE10FA56
:1057500004D884F86850E06E093801E0E06E401C1F
:10576000E066216F884203DD256784F8685001E018
:105770006169216700216269FFF769FEE06694F8BC
:10578000680028B904F1500007C88046894692464F
:105790002F463E4684F874B0B0EE6C1AF0EE4C0A18
:1057A000B0EE6B0A00F091FA98BB204601F0B6FC0F
:1057B00004F13400B0EE40BAF0EE60AAF0EE419A87
:1057C00090EC030AF0EE6C2AB0EE4C2AF0EE6B1A65
:1057D00000F063FA00F099FAF0EE692AB0EE6A2A56
:1057E000F0EE4B1AFFF73EFE04F15C0080EC030A7A
:1057F00094F8400040B900F07BFAD4ED040AB4EE0E
:10580000E00AF1EE10FA05D884F87450A06F093858
:1058100002E018E0A06F401C0346A067E06F8342DF
:1058200003DDE56784F8745001E06069E0670021FA
:1058300018466269FFF70BFEA06794F8740010B970
:10584000D4E91856E76DB6EE000A00F0F5F8F0EE70
:10585000401AB0EE481AF0EE680AB0EE490A00F0BD
:105860006FFAB0EE408AF0EE608AB0EE419A02EE36
:10587000906A02EE105A01EE907A01EE10AA00EE44
:10588000909A00EE108A00F001FAD4ED111A00F09F
:1058900057FAF0EE401AB0EE602AF0EE412AB0EE70
:1058A000491AF0EE680AB0EE480A00F0EFF9183431
:1058B000F0EE4A1A94EC048A183C00F041FA68EEC3
:1058C000C01A28EE013A28EE002A68EE202A49EE96
:1058D000601A08EEA03A09EE012A48EEC12A1834EF
:1058E00049EEC11A09EE403A09EEE02A49EE802A53
:1058F00038EE210A79EE831A78EE820A39EE221AFE
:1059000084EC040A183C00F0B9F8183484EC040A5A
:10591000BDEC0A8BBDE8F09F10EE100A10F1814F2C
:1059200002D39FED060A704710EE100AB0F17E5FB9
:1059300002DB9FED030A704704F046B9DB0FC9BFD5
:10594000DB0FC93F10B50446044900F009F80021F7
:105950006161A161E161216210BD000094BA00089B
:105960000EC900EE101AB7EE001A80E80E00C1EE64
:10597000000A9FED071A60EE810AC0ED030A00EEEF
:10598000903A20EE800ABCEEC00A80ED040A70470F
:10599000FDAD003E10B504462DED048B1830D0EC63
:1059A000031A00F0D4F9B0EE609AB0EE408AF0EE3F
:1059B000C00A94ED010AF0EE418AF4EEC00AF1EE5D
:1059C00010FA0DDCF0EEC90AF4EEC00AF1EE10FA9E
:1059D00006DCF0EEE80AF4EEC00AF1EE10FA01DDA2
:1059E000002004E0D4E90410884202D2401C606127
:1059F00018E0D4ED031AB0EE681AF0EE490AB0EEE2
:105A0000480A00F09DF91834F0EE412AB0EE602A01
:105A1000F0EE401A94EC030A183C00F037F9183401
:105A200084EC030AB0EE480AF0EE490AB0EE681AB8
:105A3000BDEC048B10BD0000DFED020A20EE200A51
:105A40007047000035FA8E3C10EE100A9FED091ADF
:105A50000749A1EB600020EE010A00EE900A20EE5B
:105A6000201A9FED050A01EE600A20EE200A704719
:105A700012141F5F12D3363FFF51D83F10B52DEDE2
:105A8000048BB0EE408AF0EE608A20EE000A60EEF1
:105A9000A00AB0EE419A21EE011AF0EE619A30EEC2
:105AA000200A61EEA11A30EE010A30EE210AFFF75A
:105AB000CBFFB0EE402AB0EE480AF0EE680AB0EE36
:105AC000491AF0EE691ABDEC048B20EE020A60EE72
:105AD000820A21EE021A61EE821A10BD10B52DED78
:105AE000088BB0EE409AB6EE00BA69EE099AF0EE75
:105AF000608AB0EE618AB0EE41AAB0EE690A01EEAA
:105B0000A10A30EE4B2A21EE210A09EE200AF0EE1E
:105B1000420A04F0EFF800F02BF8F0EE40BA29EE5C
:105B20000A0AF0EE481AF0EE000A08EEE10A20EE4A
:105B3000200AFFF7F1FE00F01BF8B0EE4A1AF0EE73
:105B400040AA48EEA89A28EE810AF0EE481A09EE1B
:105B5000210A79EECB0A04F0CDF800F009F8B0EE96
:105B6000401AB0EE6B0AF0EE6A0ABDEC088B10BD6D
:105B7000DFED020A20EE200A70470000E02E6542A9
:105B8000F0B58BB00E46040036D0FFF79FFC002521
:105B90008DF81050B6EE000A8DED050A9FED170A3C
:105BA00006EB86008DED060AB2EE040A8DED070ABB
:105BB0009FED130A04A98DED080A09902046FFF70E
:105BC000BBFC04F180000746FFF7BCFE0D4A01ABA9
:105BD00000EE106A07CA83E80700B8EE400A01A980
:105BE00038468DED010AFFF7BBFE7D62BD62FD62A6
:105BF00000F0F0F9C4F8B0000BB0F0BD00007A433B
:105C00000000000094BA00082DE9F0471E462DED73
:105C1000028BB0EE618A1746884605004FF00004FB
:105C20002ED005F180008146FFF7B4FE01EE908A88
:105C30009FED153AF0EE484AB8EEE12A04EE104A1C
:105C40002846C2EE031A02EE107AF8EEC22A82EE5D
:105C5000832A02EE906AF8EEE23AC3EE832A03EE5C
:105C6000904A03EE104AFFF7DDFC183595EC040A64
:105C7000FFF734FF89ED090AC9ED0A0A89ED0B1A0D
:105C8000BDEC028BBDE8F08700007A4430EE210ABB
:105C900070EE820A31EE221A7047B0EE603A61EE81
:105CA000210A63EE223A40EE620A41EE423A20EEC9
:105CB000021A03EE611AB0EE630A704720EE210A61
:105CC00060EE820A21EE221A7047B5EEC00AF1EEAC
:105CD00010FA0BD1F5EEC00AF1EE10FA06D1B5EECE
:105CE000C01AF1EE10FA01D1012070470020704770
:105CF00010B5F0EE412AB0EE602AF0EE401AFFF740
:105D0000DDFFBDE8104000F029B810B52DED048B83
:105D1000F0EE418AB0EE608AB0EE409AFFF7E8FFFD
:105D2000FFF792FEF0EE401AB0EE681AF0EE480A65
:105D3000B0EE490ABDEC048BBDE81040AFF3008023
:105D400020EE210A60EEA10A21EE211A704730EE02
:105D5000610A70EEC20A31EE621A704730EE200A14
:105D600030EE010A7047000070B5044600F032F9C9
:105D70000546601C02D004484068044400F02AF93B
:105D8000401BA042FAD370BDD40000202DE9F04F93
:105D9000DFF80C92002301260325A9F1040B85B03E
:105DA0000F2709F1040AABF1040EF1E006FA03FC37
:105DB00012EA0C027ED00C7904F00304012C01D00D
:105DC000022C20D1846800945C0005FA04F8049445
:105DD000009C24EA08040094D1F80C80049C08FA82
:105DE00004F8009C48EA0408C0F80880446824EAE3
:105DF0000C0491F804C0CCF3001C0CFA03FC4CEA30
:105E0000040CC0F804C00C79E443A40702D18C68E8
:105E1000012C0ED0C4684FEA430805FA08FC24EAB6
:105E20000C04D1F808C00CFA08FC4CEA040CC0F8C9
:105E30000CC00C7904F00304022C16D1DC0800EB32
:105E4000840CCDF808C0DCF820C05C074FEAD468A9
:105E500007FA08F42CEA040C0C6904FA08F444EA82
:105E60000C04DDF808C0CCF8204004684FEA430871
:105E700005FA08FC24EA0C0491F804C00CF0030CA9
:105E80000CFA08FC4CEA040CC0F800C04C6814F48E
:105E9000403F7CD0434CD4F860C04CF0010CC4F8B7
:105EA00060C0246E23F0030C04F0010400943E4C07
:105EB000644400E06BE00294A4684FEA837C4FEAFC
:105EC0001C7807FA08FC24EA0C04B0F1904F06D0C5
:105ED000DFF8D8C0604505D14FF0010C20E04FF04D
:105EE000000C1DE0DFF8C8C0604502D14FF0020C85
:105EF00016E0DFF8C0C0604502D14FF0030C0FE0A0
:105F0000DFF8B4C0604502D14FF0040C08E0DFF8C0
:105F1000ACC0604502D14FF0050C01E04FF0060C1B
:105F20000CFA08FC4CEA040C029CC4F808C0D9F82E
:105F30000040CC46D1F8048094435FEAC82800D5DD
:105F40001443CCF80040DAF80040D446D1F804807D
:105F500094435FEA882800D51443CCF80040DBF86E
:105F60000040DC46D1F8048094435FEA883800D5CD
:105F70001443CCF80040DEF80040F446D1F8048029
:105F800094435FEAC83800D51443CCF800405B1C4A
:105F90000C682246DC407FF409AF05B0BDE8F08F05
:105FA00008040140001002400000014000040048C5
:105FB00000080048000C0048001000480014004889
:105FC0000069084000D0012070470AB18161704724
:105FD000816270470148806870470000D40000204B
:105FE000024881684268114481607047D4000020F3
:105FF00010B50024032000F073F80F2000F008F81B
:1060000008B1012401E000F025F8204610BD000091
:1060100070B50E4E05460024706898B14FF47A7141
:10602000B1FBF0F00A490968B1FBF0F001F01DF88E
:1060300040B9102D06D200222946501E00F030F83B
:10604000356000E00124204670BD0000D40000202F
:10605000E00000200A4882B0016E41F001010166B3
:10606000016E01F001010091816D41F08051816567
:10607000806D00F08050009002B000F0A1B80000E8
:1060800000100240002809DB00F01F0201219140AE
:106090004009800000F1E020C0F8001170470000C6
:1060A000F0B40E4B1B680C46C3F30223C3F1070583
:1060B000042D00D90425191D072901D2002300E071
:1060C000DB1E012606FA05F1491E214099409E403B
:1060D000761E16403143F0BC03F0E9BC0CED00E045
:1060E000064900F0070208684FF6FF03184040EA2F
:1060F0000220034A10430860704700000CED00E0E6
:106100000000FA052B492C4B0A6832214A432B49DF
:1061100040B1B0F5007F086829D020F4C06040F499
:1061200080602CE00868C0F34120022804D051F8B8
:10613000800F20F4807022E0D1F8800020F480707D
:10614000C1F88000086820F4C06040F40070086066
:10615000B2FBF3F0401C00E0401E4A69520501D535
:106160000028F9D1486940050AD503207047C0F3DB
:106170004120022806D051F8800F40F4807008605A
:1061800000207047D1F8800040F48070C1F8800092
:10619000086820F4C06040F400700860B2FBF3F0BF
:1061A000401C00E0401E4A695205DBD50028F9D1A9
:1061B000D8E70000E000002040420F0000700040DF
:1061C0000248816841F4804181607047007000405E
:1061D0000A490A6822F007020A6009490A6842F07F
:1061E00004020A60012807D040BF20BF20BF086812
:1061F00020F004000860704730BFF8E700700040EE
:1062000010ED00E00B490A6822F00702521C0A60F8
:1062100009490A6842F004020A60012807D040BF19
:1062200020BF20BF086820F004000860704730BF1E
:10623000F8E700000070004010ED00E0B0F5804F7E
:10624000084601D0FFF7C4BFFFF7DCBF2DE9F843D4
:106250000446006800269D4D00035ED5A86D00270A
:10626000C00008D4A86D40F08050A865A86D012733
:1062700000F080500090DFF85892D9F8001041F4F7
:106280008071C9F80010FFF7A5FE804606E000BF48
:10629000FFF7A0FEA0EB080002282BD8D9F80000D9
:1062A000C005F5D5D5F8900010F4407014D0216CDD
:1062B000814211D0D5F89000D5F8901020F44070AC
:1062C00041F48031C5F89010D5F8901021F4803158
:1062D000C5F89010C5F89000C00711D0FFF77AFEFE
:1062E000804641F2883907E0FFF774FEA0EB080111
:1062F000494501D903260BE0D5F890008007F3D576
:10630000D5F89000216C20F440700843C5F8900047
:106310001FB1A86D20F08050A8652078C00707D075
:10632000D5F88800616820F003000843C5F88800AC
:106330002078800707D5D5F88800A16820F00C00E8
:106340000843C5F888002078400707D5D5F88800AD
:10635000E16820F030000843C5F888002078000785
:1063600007D5D5F88800216920F0C0000843C5F89A
:1063700088002078800607D5D5F88800616920F468
:1063800040600843C5F888002078400607D5D5F856
:106390008800A16920F440500843C5F8880020789F
:1063A000000607D5D5F88800E16920F4404008438D
:1063B000C5F888002088C00507D5D5F88800216A6F
:1063C00020F440300843C5F888002088800507D5B0
:1063D000D5F88800616A20F440200843C5F8880099
:1063E000208840050FD5D5F88800A16A20F4401018
:1063F0000843C5F88800A06AB0F5801F03D1E8689B
:1064000040F48010E860208800050FD5D5F888009A
:10641000E16A20F440000843C5F88800E06AB0F55E
:10642000800F03D1E86840F48010E8602088C00441
:106430000FD5D5F88800216B20F040700843C5F8CF
:106440008800206BB0F1807F03D1E86840F48010B1
:10645000E86020884FF0006180040ED5D5F88800F0
:10646000626B20F040601043C5F88800606B884282
:1064700003D1E86840F48010E860208840040ED51D
:10648000D5F88800A26B20F040601043C5F8880062
:10649000A06B884203D1E86840F48010E86020884F
:1064A00000040FD5D5F88800E16B20F04050084378
:1064B000C5F88800E06BB0F1805F03D1E86840F474
:1064C0008030E8603046BDE8F883000000100240EC
:1064D000007000402DE9F0470E4605004FF0000720
:1064E00025D0DFF8AC81D8F8000000F00F00B042F2
:1064F0000CD2D8F8001021F00F013143C8F8001079
:10650000D8F8000000F00F00B04210D12968614CAB
:10651000C80741F2883A5AD06868DFF87C910328AE
:1065200008D0022820682DD0400500282CDB01204F
:10653000BDE8F08720688001F9D5E06800F003022B
:10654000E068C0F30310401C032A19D0534A00BF6F
:10655000B2FBF0F0E268C2F306225043E268C2F3F5
:106560004162521C5200B0FBF2F0484517D9A068B6
:1065700010F0F00F0CD0880711D5A86840B10EE0DC
:10658000474AE5E78003D0E700F0B6F8484506D96A
:10659000A06820F0F00040F08000A0608027A06894
:1065A000696820F003000843A060FFF713FD8146EF
:1065B00006E000BFFFF70EFDA0EB090151453AD8F8
:1065C000A068696800F00C00B0EB810FF2D1286878
:1065D000810714D5400703D5A06840F4E060A060AF
:1065E0002878000705D5A06820F4605040F4E060EA
:1065F000A060A068A96820F0F000084304E0802FA4
:1066000003D1A06820F0F000A060D8F80010404648
:1066100001F00F01B14216D9016821F00F01314399
:106620000160FFF7D7FC074607E000BFFFF7D2FC89
:10663000C11B514501D903207AE7D8F8000000F0CA
:106640000F00B042F2D12878400705D5A068E9686C
:1066500020F4E0600843A0602878000706D5A06811
:10666000296920F4605040EAC100A06000F044F8BD
:10667000A1680C4AC1F30311515C01F01F01C8402D
:106680000949086009480068BDE8F047FFF7C0BC49
:10669000002002400010024000B4C4040024F400B2
:1066A00000366E01ECBA0008E0000020D4000020A3
:1066B0000548064900688968054AC1F30221515C12
:1066C00001F01F01C8407047E000002000100240A8
:1066D000FCBA00080548064900688968054AC1F304
:1066E000C221515C01F01F01C8407047E00000204A
:1066F00000100240FCBA0008184910B58868C0F3C1
:1067000081021748012A0BD08A68164BC2F3810216
:10671000022A06D08A68C2F38102032A03D000202D
:1067200010BD184610BDCA6802F00304CA68C2F35F
:106730000312521C032C02D0B0FBF2F001E0B3FBB9
:10674000F2F0CA68C968C2F306225043C1F341613E
:10675000491C4900B0FBF1F010BD000000100240E0
:106760000024F40000366E012DE9F84304007AD0CD
:106770002078F84DC00747D0A868E96800F00C0001
:1067800001F003010C2802D0082817D001E00329EA
:1067900014D06068B0F5803F17D0B0F5A02F2868FE
:1067A00017D020F480302860286820F480202860EA
:1067B0006068E0B1FFF70EFC064614E0286880032D
:1067C00022D560680028D2D01EE0286840F48030CE
:1067D000EDE740F480202860F7E700BFFFF7FAFB01
:1067E000801B642870D828688003F7D50CE0FFF779
:1067F000F1FB064605E000BFFFF7ECFB801B6428B9
:10680000F0D828688003F7D4207880074CD5A86892
:10681000E96800F00C0001F003010C2802D0042804
:106820000DD001E002290AD0E068002828682BD0AA
:1068300040F480702860FFF7CDFB064619E0286819
:10684000400502D5E068002891D06868217C20F0DE
:10685000FE4040EA01606860BF480068FFF7D8FB6F
:10686000002800D120E072E1FFF7B4FB801B022872
:10687000B8D828684005F7D56868217C20F0FE402C
:1068800040EA016068600FE020F480702860FFF744
:10689000A1FB064605E000BFFFF79CFB801B02281A
:1068A000A0D828684005F7D42078000729D560696A
:1068B0000028D5F8940013D040F00100C5F89400EA
:1068C000FFF788FB064606E090E000BFFFF782FB7B
:1068D000801B022886D8D5F894008007F6D510E0F2
:1068E00020F00100C5F89400FFF774FB064604E0B1
:1068F000FFF770FB801B022878D8D5F8940080073A
:10690000F6D42078400761D5A86D0026C00008D4D1
:10691000A86D40F08050A865A86D012600F0805059
:1069200000908E480168C90511D40168804641F481
:1069300080710160FFF74EFB074604E0FFF74AFB5A
:10694000C01B022852D8D8F80000C005F6D5A068B0
:10695000012815D00528D5F8900016D020F00100A8
:10696000C5F89000D5F8900020F00400C5F890001C
:10697000A06841F28838B8B1FFF72CFB07460EE05B
:10698000D5F8900040F00100F0E740F00400C5F8B1
:106990009000F5E7FFF71EFBC11B414526D8D5F84F
:1069A00090008007F6D50CE0FFF714FB074604E0E3
:1069B000FFF710FBC11B414518D8D5F890008007A0
:1069C000F6D41EB1A86D20F08050A865207880060E
:1069D00029D5A0690028D5F8980013D040F001000F
:1069E000C5F89800FFF7F6FA064606E075E000BF26
:1069F000FFF7F0FA801B02286FD8D5F898008007BF
:106A0000F6D510E020F00100C5F89800FFF7E2FA93
:106A1000064604E0FFF7DEFA801B02285DD8D5F8B1
:106A200098008007F6D4E069F0B3A968C1F381014A
:106A300003295DD00228286820F08070286003D0E8
:106A4000FFF7C8FA04464BE0FFF7C4FA064604E035
:106A5000FFF7C0FA801B02283FD828688001F7D4CE
:106A6000F4E908016FF00F0202EB01110843218ADB
:106A70005204490802EB4151A26841EA022108434D
:106A8000217D4FF07E42490802EB41610843217BA2
:106A900040EAC160E968324A11400843E86028686A
:106AA00040F08070286000E05EE0E86840F08070B0
:106AB000E860FFF78FFA044605E000BFFFF78AFAA7
:106AC000001B022809D828688001F7D54CE000BFD8
:106AD000FFF780FA001B022802D90320BDE8F883E3
:106AE00028688001F4D4E8681E490840E8603BE06B
:106AF0000128F3D0E868226A00F00301914226D110
:106B0000616A00F0F0020901103991421FD1A26AB6
:106B100000F4FE41B1EB022F19D194F82C2000F0C3
:106B20007841B1EBC26F12D1218E00F4C002490846
:106B30004905A1F50011914209D194F8341000F0F3
:106B4000C06049084906A1F1007181420CD00120C2
:106B5000C4E7000000100240D40000200070004094
:106B60000C809F01FCFFEEFE0020B7E7704700009D
:106B7000014850F82100704700250040014840F8C6
:106B800021207047002500407047000010B50446E2
:106B90000068016D490707D50421C16588040449CF
:106BA00008602046FFF7F0FF012084F8250010BDA3
:106BB000140401400149012008707047D0000020F2
:106BC0002DE9F04104460068456D0D4FE9074FF08F
:106BD00001084FF4003605D0C0F85C803E602046C6
:106BE000FFF7E8FFA80706D521680220C8653E60C8
:106BF0002046FFF7BBFF84F82580BDE8F081000048
:106C00001404014010B500680B4641680D4801406E
:106C1000080CD870C1F304245C7001F03F049C7030
:106C2000C1F34231197052B902F0E2FAD8705878C3
:106C300002F0DEFA5870987802F0DAFA98700020C4
:106C400010BD00003FFFFF0010B50B4601688968CA
:106C5000596001680969C1F30E0199600068016813
:106C60000D480140C1F305401870C1F306245C7063
:106C700001F07F049C70890DD97052B902F0B8FA06
:106C80001870587802F0B4FA5870987802F0B0FA98
:106C90009870002010BD00007F7F7F0070B5040059
:106CA0004FF0010040D094F8250028B9002084F866
:106CB0002400204600F040F8022084F825002068D7
:106CC000C168C943C90630D5CA2141622168532031
:106CD0004862204602F0A2FA10BB20688169154A7A
:106CE00011408161216888696268A3691043226943
:106CF0001A43104388612189E06840EA0140216815
:106D00000861204602F0AFFA50B9D4E907211143D7
:106D100022686369956925F060452B4319439161A9
:106D20002268FF21516208B170BD0020012184F862
:106D3000251070BDBFFF8FFB704700002DE9F05F8D
:106D4000044690F824000B46012844D04FF0010976
:106D500084F824904FF0020A84F825A020680026C9
:106D600080694FEA4060AAB3002800DBDE709878A3
:106D70001978DA7840EA01405978090241EA8251EB
:106D8000084393F8201040EA0165D8695F6805431D
:106D900058692168054398690743CA2048622168F9
:106DA000532048625A6A4349B2F5807F22684FF403
:106DB00000304FF0FF0893694FF47A7B28D023F41A
:106DC000085393612368C3F85CA00860FFF702F9D9
:106DD00082464CE002E00220BDE8F09F002800DB84
:106DE000DE70187802F00DFA0504587802F009FAFE
:106DF00045EA0025987802F004FA0543D87845EA78
:106E0000805593F8200002F0FCF945EA0065BCE7E4
:106E100023F4885393612368C3F85C900860FFF7FC
:106E2000D9F8824606E000BFFFF7D4F8A0EB0A00CD
:106E3000584513D82068C068C007F5D0206805649D
:106E4000206847642068816941F488511BE000BFD5
:106E5000FFF7C0F8A0EB0A00584508D92168C1F82F
:106E60002480032084F8250084F82460B4E7206897
:106E7000C0688007ECD5206885642068C7642068F6
:106E8000816941F4085181610A481438016841F46C
:106E90000031016007480C38016841F4003101609D
:106EA0002168C1F8248084F8259084F824600020AB
:106EB00092E700001404014070B5044690F82400E5
:106EC0000B4601281BD0012684F82460022084F898
:106ED0002500B2B19878D97840EA014558781978F8
:106EE000000240EA413005432168CA204862216817
:106EF00053204862204602F091F9D0B120E00220F0
:106F000070BD5878C10603D500F0EF000A30587004
:106F1000D87802F076F90504587802F072F945EA5B
:106F20000025987802F06DF90543187845EA403558
:106F3000DAE70848054020684560204602F093F9EA
:106F40002268FF21516208B984F82560002184F885
:106F5000241070BD3FFFFF002DE9F041044690F87A
:106F6000240090460D46012811D0012784F8247092
:106F7000022084F825002168CA2048622168532035
:106F80004862204602F04AF9002618B129E00220A2
:106F9000BDE8F0812068B8F1000F80694FEA4060D9
:106FA00024D0002800DBEE70A8782978EA7840EA3F
:106FB00001406978090241EA8251084318490840B2
:106FC000216808602068816921F480218161D5E908
:106FD0000301084321688A6910438861204602F052
:106FE00042F92268FF215162A0B115E0002800DBC0
:106FF000EE70287802F005F90304687802F001F9D0
:1070000043EA0023A87802F0FCF80343E87843EA57
:107010008050D3E784F8257084F82460B8E7000036
:107020007F7F7F0070B504460B482168C860FEF77B
:10703000D1FF05464FF47A7607E000BFFEF7CAFF9E
:10704000401BB04201D9032070BD2068C068800693
:10705000F4D5002070BD00005F0001004FF0E0207B
:10706000016941F002010161704710B5401EB0F1A5
:10707000807F01D3012010BD4FF0E02460610F211B
:10708000601702F014FD0020A0610720206100209D
:1070900010BD4FF0E020016921F00201016170474D
:1070A0000178B6EE001A59B1012909D002291ED083
:1070B000002000EE100A00EE900A01EE100A704760
:1070C000D0ED072AD0ED090AD0ED061A90ED082A76
:1070D00022EEA00A11EEA11A01EEC20A22EE202A27
:1070E00000EEA01A01EEA22AF0EE420A7047D0ED9F
:1070F000061AD0ED080AD0ED072A90ED090A21EE14
:10710000A02A01EEE11A60EE800A02EEC02A51EEDA
:10711000E20A00EE401AB0EE420A70470178F6EE3D
:10712000000A59B101291AD0022933D0002000EEFB
:10713000100A00EE900A01EE100A704790ED061A50
:1071400090ED072AD0ED081A51EE010AD0ED092A78
:1071500022EE210A01EE220A41EEA10A2AE090ED78
:10716000061AD0ED092A90ED070A41EE410A61EEB8
:10717000221A90ED082A40EE421A40EE400A20EE14
:10718000220A01EE020AB1EE401AB0EE600AF0EEF9
:10719000610A7047D0ED061AD0ED072A90ED081A63
:1071A00041EEE10A90ED092A22EE810A11EEC20AAF
:1071B00041EE410A61EEA21A41EE421AB0EE611AA6
:1071C00070470000BFF34F8F05480168054A01F47E
:1071D000E06111430160BFF34F8F00BFFDE7000086
:1071E0000CED00E00400FA0510B508B1012200E042
:1071F000002210214FF09040FEF7E7FE00BF00BFD5
:1072000010BD000070B586B014216846FDF719F86E
:107210001548C16C41F00101C164C06C01AA00F0C5
:10722000010005901020009001200024032582E831
:1072300031004FF0904669463046FEF7A7FDE0204A
:10724000009001A9022081E83100052004906946E0
:107250003046FEF79BFD0120FFF7C6FF0A20FEF730
:1072600083FD06B070BD00000010024070B50D46F1
:107270002DED048B84B00400DFED208AB0EE689A17
:10728000B0EE688A08D03DB100261AE002AA01A932
:10729000684600F0E1F820B1012004B0BDEC048B99
:1072A00070BD9DED000A052039EE009A9DED010AA2
:1072B00078EE808A9DED020A38EE008AFEF754FDD2
:1072C000761CA642E2D300EE104A0020B8EE400A37
:1072D000C9EE000A00EE104AB8EE400AC5ED000AF9
:1072E000C8EE800A00EE104AB8EE400AC5ED010A69
:1072F000C8EE000AC5ED020ACFE70000000000005A
:107300007CB5002405468DF80040FFF77BFF304830
:10731000016E41F480510166016E01F480510191CA
:10732000016C41F480510164016C21F480510164CD
:107330002848046044604FF4437101604FF4B85131
:107340004160016841F0400101600121112000F01D
:1073500023F9D0BB0A20FEF707FD0021762000F0BC
:107360001BF990BB6E460020FFF73EFFF52001A9F8
:1073700000F0D6F8040009D1314600F0D1F804003D
:1073800004D10021802000F0E7F804460120FFF737
:107390002BFFD4B915B19DF8000028709DF80000AE
:1073A000472812D10F214E2000F0F6F868B932209C
:1073B000FEF7DAFC6621502000F0EEF828B96621CD
:1073C0004F2000F0E9F8002800D001207CBD00002B
:1073D00000100240003001407CB514460D46060006
:1073E00007D035B12CB1062269461F2000F06EF897
:1073F00008B101207CBDBDF80000BDF8042040BAF2
:1074000001B200EE101ABDF8020052BAF8EEC00A3E
:107410009FED100A40BA00B280EE801A12B2FDEE63
:10742000C10AC6ED000A00EE900A0020F8EEE00A5C
:1074300080EE801AFDEEC10AC5ED000A00EE902A2A
:10744000F8EEE00A80EE801ABDEEC10A84ED000A73
:107450007CBD00006F1283417CB514460D460600CA
:1074600007D035B12CB106226946252000F02EF850
:1074700008B101207CBDBDF80000BDF8042040BA71
:1074800001B200EE101ABDF8020052BAF8EEC00ABE
:107490009FED0D0A40BA00B280EE801A00EE900A0D
:1074A00012B20020F8EEE00A86ED001A80EE801A93
:1074B00000EE902AF8EEE00A85ED001A80EE801AC0
:1074C00084ED001A7CBD000000000343F8B51646A9
:1074D0000F0004460BD056B10020FFF785FE44F0A4
:1074E0008000694600F01CF80446002508E00120F1
:1074F000F8BD7919002000F013F86D1C0446EDB2B8
:10750000B54202D2002CF4D005E024B9002180203D
:1075100000F022F804460120FFF766FE2046F8BD81
:1075200070B50C00064605D00121022000F014F8C9
:1075300048B901E0012070BD064D2E7301210846B7
:1075400000F00AF808B1032070BD287B20700020ED
:1075500070BD0000003001402DE9F0410D460646A7
:10756000FEF738FD04460B4F08E000BFFEF732FD82
:10757000001B052802D30320BDE8F081B868304025
:1075800000D001200DB1012100E000218842EDD1A1
:107590000020F1E70030014038B504460D460020D8
:1075A000FFF722FE04F07F006946FFF7B9FF0400F1
:1075B0000AD169462846FFF7B3FF040004D1002131
:1075C0008020FFF7C9FF04460120FFF70DFE20468B
:1075D00038BD0000014890ED020A70479C00002071
:1075E000054800219FED050A4170416080ED020AC7
:1075F00080ED030A704700009C000020000000009E
:1076000010B5FDF733FE0F4CDFED0F0A012084EDBE
:10761000020A20EE200ADFED0D0A80EE201A84ED2A
:10762000031A6070FEF7D6FC606094ED020AF6EE75
:10763000000A30EE200ABCEEC00A10EE100AC0B2FA
:1076400010BD00009C000020CDCC0C400000C842C2
:1076500070B5F5EEC00A2DED068BB0EE409AF1EE56
:1076600010FA01DAF1EE600AB0EE608AFEF7B2FCC1
:107670003F4C6178D9B3616888426BD9411A4FF4A5
:10768000FA62914200D9114600EE101ADFED390A74
:107690009FED391AB8EE400A606018EE100A374DB7
:1076A000C0EE209A00EE101AA842F8EE400A80EED2
:1076B000810AD4ED030A03DB48EE400AC4ED030A55
:1076C0009FED2FAADFED2F8A80EE8A0ADFED2E0ACA
:1076D00020EE280A84ED020AB0EE490A08EE200ADC
:1076E000FDF7C4FD18EE100AA8420CDA00E002E033
:1076F000DFED260A09E0B0EE490ABDEC068BBDE8D5
:107700007040FFF77DBFDFED220A94ED021A69EEAB
:10771000A00A30EE410A20EE200A31EE000A84ED84
:10772000020AB5EEC00AF1EE10FA04D29FED190A72
:1077300084ED020A06E010EE100A1749884201DDC6
:10774000C4ED028A94ED020A20EE0A0AC0EE280A6D
:10775000C4ED030A94ED020AF6EE000ABDEC068BB6
:1077600030EE200ABCEEC00A10EE100AC0B270BDA6
:107770009C00002000007A4400BA5B4ACDCC4C3D0E
:10778000CDCC0C400000C842295C0F3D0AD7233CF9
:1077900017B7D138000000000000C84208B500202B
:1077A000009000BF401C00903C28FAD308BD70B583
:1077B00006460024012000F0B1F800256006040E02
:1077C000012000F08FF800F09DF808B144F00104AA
:1077D000002000F087F86D1CEDB2082DEED36EB1DD
:1077E000002000F09BF8012000F07CF8002000F061
:1077F00079F8012000F092F8204670BD0120F0E7F2
:1078000010B5012000F08AF8012000F06BF800208C
:1078100000F084F8BDE81040002000F063B810B517
:10782000002000F07BF8012000F05CF8BDE810407B
:10783000012000F073B870B505460024E80900F097
:107840006DF8012000F04EF8002000F04BF86806BB
:10785000641C050EE4B2082CF0D3012000F05EF8A1
:10786000012000F03FF800F04DF828B1002400207E
:1078700000F038F8204670BD0124F8E770B5184CC8
:1078800006460D46207828B325B3FFF7B9FF2078C8
:107890004006000EFFF7CFFFF0B13046FFF7CBFFF9
:1078A000D0B1FFF7ADFF2078012101EB4000C0B25D
:1078B000FFF7C1FF80B10120FFF779FF04460020E8
:1078C000FFF775FF0646FFF7AAFF46EA0420288067
:1078D000002070BD012070BDFFF7A1FFFAE7000096
:1078E0009C00002010B508B1012200E00022022116
:1078F0000348FEF76AFBBDE81040FFF74FBF0000EA
:107900000008004810B501210348FEF759FB012883
:1079100000D0002010BD00000008004810B508B1DC
:10792000012200E0002201210348FEF74EFBBDE8E2
:107930001040FFF733BF00000008004800B587B0D3
:1079400014216846FCF77DFC1548C16C41F0040128
:10795000C164C06C694600F00400059003200090EB
:107960001120019001200290002003900D48FEF7A5
:107970000DFA0120FFF7D2FF0120FFF7B3FF0A2025
:10798000FEF7F2F9084944200870FFF729FE07B016
:1079900043F6FF7100205DF804EB00F041B80000F1
:1079A00000100240000800489C00002008B569460D
:1079B0000220FFF763FF10B19FED070A08BDBDF875
:1079C0000000DFED060AC00800EE100AB8EE400A1B
:1079D00020EE200A08BD0000000000006F12833B6B
:1079E00008B569460120FFF749FF10B19FED090A6C
:1079F00008BDBDF80000DFED080A00B200EE100A75
:107A00009FED061AB8EEC00A60EE200A80EE810AE9
:107A100008BD000000000000ACC527370AD7A33B13
:107A200070B5114D06460C462878B8B1FFF7E8FE50
:107A300028784006000EFFF7FEFE88B13046FFF7BB
:107A4000FAFE68B1200AFFF7F6FE48B1E0B2FFF790
:107A5000F2FE28B1FFF7E3FE002070BD012070BDEB
:107A6000FFF7DDFEFAE700009C0000204FF0006306
:107A700072B61F48016841F48071016001684905D0
:107A8000FCD5816821F00301491C81608168C1F344
:107A900081010129FAD10168164A1140016051168D
:107AA0008162002282620C1FC462C26201630263AF
:107AB00081638263C163C263016402644FF0E020AA
:107AC0000261426182610020820002F1E022C2F87C
:107AD0008011C2F88012401C0828F5DB06490B60B3
:107AE00062B6186880F3088858688047FEE700008F
:107AF00000100240FFFFFEFE08ED00E0FEE7000080
:107B00002DE9F0412DED088BFEF764FAA34C002619
:107B1000E17941B1A67126716671BDEC088BBDE8B3
:107B2000F04100F061B9A1799FED9D8A9B4D8035B0
:107B300001279FED9C9AA1B184ED088A84ED098A02
:107B4000E67084ED198A84ED1A8A85ED008A85ED48
:107B5000018A207910B900F0FDFF1CE0B0EE490A5F
:107B600015E1617921B1A16A401AB0F5FA7F14D903
:107B700084ED088A84ED098AE67085ED008A85ED3A
:107B8000018A6672667120790028E7D101F022F936
:107B9000002001F065F92771E0E794ED080A00F094
:107BA000E5F9070000EE107AF0EE498AF3EE020ADA
:107BB000F8EEC0AA00EE107AF8EEC09A94ED090A29
:107BC00040EE208A7DD0A07800287AD0E078002886
:107BD00077D07549206A884202DA7449884270D3A6
:107BE00010EE100A724988426BD210EE100A7149E9
:107BF000884266DA00F002FAD4ED180A30EEC00AC4
:107C000000F0C6FEB0EE408A94F90B009FED6A0AC0
:107C1000012807D118EE101A684A914202D938EEAD
:107C2000008A08E0401C06D118EE100A6449884218
:107C300001DD38EE408A94ED190A9FED62AA08EE44
:107C40000A0A84ED190A9FED60BAB0EE4B1ADFED17
:107C50005FBAF0EE6B0A00F013F9FBEE040A84ED54
:107C6000190A20EE200A84ED1A8AD4ED080A08EEDB
:107C7000490AF5EEC00AF1EE10FA01D2B1EE400A5F
:107C8000002F78EE808A01DD012601E04FF0FF36FB
:107C900000EE106AD4ED1E0AB0EE4B1AB8EEC00A20
:107CA00020EE808A00EE106AD4ED1F0AB8EEC00AFA
:107CB00000EEC08A95ED000A08EE0A0A85ED000A7A
:107CC00000E024E0F0EE6B0A00F0DAF8F0EE400A93
:107CD000B0EE080AB0EE001A28EE000AC5ED000A60
:107CE00085ED018A00EE810AB2EE081AFAEE080A62
:107CF00000F0C6F800EE906AF8EEE00A40EEC0AA86
:107D000000EE906AF8EEE00A40EE809A08E0E67035
:107D100084ED198A84ED1A8A85ED008A85ED018A41
:107D200018EE900A2A49884202DDDFED2A8A06E031
:107D300018EE900A2849884201DADFED288A9FED83
:107D4000289A9FED28AAB0EE6A0AB0EE491AF0EE22
:107D50004A0A00F095F8B0EE408AB0EE491AF0EE0B
:107D60004A0AB0EE690A00F08BF8B0EE409ABDEE18
:107D7000C80A10EE100A40B201F02CF8BDEEC90A94
:107D800010EE100A40B201F06BF8B0EE680ABDECDC
:107D9000088BBDE8F04101F00FBB0000000000209F
:107DA000000000000000C8420AD7A33D0AD7A3BDC7
:107DB0000AD723BC0AD7233CDB0FC940C3F5C8BF91
:107DC000C3F5C83F6F12833ACDCC4C3ECDCC4CBEF0
:107DD00000001643000016430000484200004842DD
:107DE00000005C4200005CC210B51D4C2DED028B02
:107DF000A0789FED1C8A20B3207A10B300F0FEF823
:107E0000D4ED1B0A30EEC00A00F0C2FDDFED160A09
:107E10001749C4ED1C0ADFED150A84ED1D0A20EE9A
:107E2000200A30EE088A18EE100A884202DD9FED23
:107E3000118A06E018EE100A0F49884201DA9FED18
:107E40000F8A002000F0C6FF002001F009F8B0EE14
:107E5000480ABDEC028BBDE8104001F0ADBA00004D
:107E6000000000200000C842000000000000B4C272
:107E7000000016430000164300004842000048423C
:107E8000B4EEE00AF1EE10FA02D2B0EE600A7047EA
:107E9000B4EEC10AF1EE10FAF9DDB0EE410A704716
:107EA00010B5044C207908B100F07EFF002020714D
:107EB000A07110BD00000020054800219FED050ABB
:107EC00000F18002817282ED020AC17270470000E7
:107ED0000000002000000000224810B59FED200A9D
:107EE000002180ED080A80ED090A8162C162016308
:107EF00080ED0D0A80ED0E0A80ED0F0A80ED100A6C
:107F000080ED110AC17080ED180A80ED190A80ED2C
:107F10001A0A017141718171C17180ED1B0A0172F0
:107F200080ED1C0A80ED1D0A80ED1E0A00F1800222
:107F300080ED1F0A82ED000A82ED010A4172817212
:107F400082ED020AC172002000F044FF002000F020
:107F500087FFBDE810409FED040A01F02DBA000034
:107F600000000000000000200000C84210EE100ACF
:107F70001B49884206D210EE100A1A49884201DADB
:107F800000207047DFED180AB5EEC00AF1EE10FAD6
:107F90000AD2B1EE400A10EE100A144A01219042B2
:107FA0000ADD9FED130A07E010EE100A114A0021C6
:107FB000904201DDB0EE600A80EE201A9FED0E0ABD
:107FC00021EE000ABDEEC00A10EE100A40B2421EB9
:107FD000042A00D205200029D3D0404240B2704785
:107FE0000AD723BC0AD7233C9A99193F9A99993EFC
:107FF0009A99993E9A99193F00005C42074890ED82
:108000002B0A0748817819B1D0ED070A30EE600AD3
:10801000DFED040A20EE200A00F0BABCF4000020D4
:108020000000002035FA8E3C2DE9F0432DED048B45
:1080300085B0002854D00178402951D1401C074612
:108040000422F8A1FCF716F90025B8B10622F7A121
:108050003846FCF70FF940B3F6A13846FCF7FCF8B8
:108060000126F64C002840D038789FEDF58A04F1BF
:10807000800942283BD0432856D062E003A80090F4
:108080000195029502AB01AAEEA10395381DFCF7FC
:1080900001F9032824D10398C2B20298C1B2019811
:1080A000C0B200F0F5FFEAA015E003A8009001952A
:1080B000029502AB01AAE3A10395B81DFCF7EAF80B
:1080C00003280DD10398C2B20298C1B20198C0B280
:1080D00000F0B0FFE5A001AC94E80E0001F05CFAFE
:1080E00005B0BDEC048BBDE8F0832673F8E7787823
:1080F000522835D1B8784128FBD1F8784B28F8D1EF
:1081000038794528F5D178790028F2D1FFF7D4FEE7
:1081100000F034FA84ED088A84ED098AE57084ED74
:10812000198A84ED1A8A36E078784D28E1D1B8783A
:108130004428DED1F8782C28DBD117F8040F422828
:108140000FD0C0B2502832D04C287DD054287CD0DB
:1081500052287BD054287AD04C2879D0522878D015
:1081600031E178785228FBD1B8784128F8D1F878F5
:108170004B28F5D138794528F2D178790028EFD10C
:10818000FFF79AFE00F0FAF984ED088A84ED098A77
:10819000E570FFF791FE89ED008A89ED018A65722D
:1081A000FDF718FFA06266712571A67198E77878CF
:1081B0004928D5D1B8784428D2D1F8785428CFD1DD
:1081C00038794528CCD1787953286FD1B87954289B
:1081D0006CD1F8792C2869D117F8080FDFEDAA8A3D
:1081E0004F2811D17878462802D04E280AD00BE0CB
:1081F000B878462808D1F87830B9FFF75DFE00F06E
:10820000BDF928E0B87888B304A9384602F03CFBF1
:108210000498B0EE408AB842C8D000780028C5D192
:10822000FFF74AFE00F0AAF9E6719FED980A28EEE2
:10823000000A00F0ADFB84ED1B0A2672A5712571C2
:108240006671FDF7C7FE05E01FE030E052E065E033
:108250008BE0A1E0A062002000F0BCFD002000F057
:10826000FFFDB0EE680A01F0A7F839E7FFE7FFF776
:1082700023FE00F083F9E671FFF7C0FE84ED1B0AD0
:10828000A07800B101202072D8E7787845280DD178
:10829000B87846280AD1F878542807D1387939288F
:1082A0006CD17879302801D1B8791FE05CE078781A
:1082B000552859D1B878522856D1F8784E2853D13C
:1082C00038792C287FD178794C2833D1B879452852
:1082D00079D1F879462876D1387A542873D1787ACA
:1082E000392870D1B87A30286DD1F87AE0BB9FED8B
:1082F000680A93E07878492865D1B878472862D130
:10830000F87848285FD1387954285CD178793928B1
:108310004ED1B879302856D1F87921E078785528AF
:1083200051D1B87852284ED1F8784E284BD13879AF
:108330002C2848D17879522845D1B879492842D19A
:10834000F87947283FD1387A48283CD1787A5428A0
:1083500039D1B87A392836D1F87A302833D1387BF8
:1083600010B99FED4C0A59E02DE0787845282AD1C4
:10837000B878462827D1F878542824D1387931287C
:1083800021D1787938281ED1B87930281BD1F879D5
:10839000C8B99FED410A41E07878492813D1B878EF
:1083A000472810D1F87848280DD1387954280AD1B7
:1083B0007879312807D1B879382804D1F87930286C
:1083C00001D1387A40B304A9384602F05DFADDF8ED
:1083D0001080B0EE409AB8453FF488AE98F800009F
:1083E0002C287FF483AE08F1010804A9404602F06E
:1083F0004BFA0498F0EE408A4045EDD00078002812
:10840000EFD119EE100A2549254FDFF898808842F0
:108410004EDD9FED259A5DE09FED240A00F020FAE5
:108420005EE600005254432C00000000414C4152D3
:108430004D2C000046494E495348000000000020E2
:108440000000000025642C25642C25640000000039
:10845000525443205365743A20253032643A253013
:1084600032643A253032640D0A000000414C41521A
:108470004D205365743A20253032643A25303264F9
:108480003A253032640D0A000000C84235FA8E3CAD
:10849000DB0FC93FDB0FC9BFDB0F49409A99193F7A
:1084A0000AD723BC0AD7233C9A99193FDB0F49C04E
:1084B00019EE100A2F49884202D99FED2F9A09E040
:1084C00019EE100AB84205D219EE100A404501DA39
:1084D000B0EE489A18EE900AB0F1804F02DDF0EE4F
:1084E000008A06E018EE900AB0F1404F01D9F8EE8C
:1084F000008A84ED089AC4ED098AFDF76BFDA0623D
:10850000667100F03BF8FFF7CBFCA078002887D01D
:10851000B5EEC09AF1EE10FA09D118EE900AB84201
:1085200005D218EE900A404501DA657220E018EE97
:10853000900AB8421CD218EE900A404518DA607AC8
:10854000A0B9A07A28B199ED020A84ED180AA572A3
:1085500003E0FFF753FD84ED180A667284ED198A73
:1085600084ED1A8A89ED008A89ED018AE670B7E503
:10857000E570B5E59A9999BE9A9999BE0648002189
:108580009FED060AC17180ED1B0A017280ED1C0A85
:1085900080ED1D0A70470000000000200000000070
:1085A0002DE9F04F844C2DED088B8FB094ED120A1D
:1085B000F8EEC00A9FED810A80EE801ADFED800A96
:1085C00061EE20BA94ED131AF8EEC11A81EE801A0A
:1085D00021EE20BA94ED141AB8EEC11AC1EE001AB9
:1085E00061EEA09AD4ED150A9FED760A20EE809AEE
:1085F000D4ED160A60EE80AAD4ED170A20EE80AA08
:10860000FFF7FCFCD4ED188AB0EE408A38EEC80AB9
:1086100000F0BEF904F1800B8DED0B0ADBF80800C9
:108620000A90D4E9041268A000F0B6FF606CFCF771
:108630007BF881468A46206CFCF776F80746884628
:10864000E06BFCF771F805460E46A06BFCF76CF882
:10865000CDE90001606BFCF767F841EC100B02A953
:1086600053EC102B81E8E0075BA000F095FF1AEEB9
:10867000100AFCF759F8074688461AEE900AFCF7EC
:1086800053F8CDE9020119EE100AFCF74DF8054642
:108690000E4619EE900AFCF747F8CDE900011BEEF3
:1086A000100AFCF741F881468A461BEE900AFCF757
:1086B0003BF8CDE9087841EC100BDDE90201CDE98A
:1086C0000456CDE90601DDE90001CDE9009ACDE9C6
:1086D000020153EC102B48A000F05EFF606AFCF72B
:1086E00023F881468A46206AFCF71EF8074688462A
:1086F0000A98FCF719F805460E460B98FCF714F893
:10870000CDE9020118EE900AFCF70EF8CDE9000160
:1087100018EE100AFCF708F8024606A80B4680E897
:10872000E007DDE90201CDE90401DDE90001009285
:108730000391CDE90130A37AE278617A374800F0FD
:108740002BFF9FED370A28EE000A10EE100AFBF708
:10875000EBFF41EC100B33A053EC102B00F01CFF8F
:108760000EAA0DA90CA800F0D9FB9DF838309DF891
:1087700034209DF830102EA000F00EFFDBF814001E
:10878000FBF7D2FF06460F46DBF81000FBF7CCFFE5
:1087900004460D46DBF80C00FBF7C6FF8DE8F00041
:1087A00041EC100B28A053EC102B00F0F5FE0FB09D
:1087B000BDEC088BBDE8F08F0000002000007A447B
:1087C0000AE81C4135FA8E3C454E432C256C642C3E
:1087D000256C640D0A0000004F444F4D2C252E33AC
:1087E000662C252E33662C252E33662C252E3366DB
:1087F0002C252E33660D0A00494D552C252E336647
:108800002C252E33662C252E33662C252E33662CF4
:10881000252E33662C252E33660D0A00A4BC0008D5
:10882000E02E65425941572C252E33660D0A000073
:108830005254432C253032643A253032643A253084
:1088400032640D0A00000000424154542C252E329F
:10885000662C252E32662C252E31660D0A0000006E
:1088600070B52DED028BB0EE408AB5EEC08AF1EE08
:1088700010FA01DD012001E04FF0FF30114CE072F1
:10888000A078C8B1FFF70CFB0025A5712571FFF793
:10889000B5FB30EE080A00F07BF8012604F18000F9
:1088A000A67280ED020A6572E570FDF793FBA06287
:1088B0006671BDEC028B70BDBDEC028BBDE87040F3
:1088C000FFF7FABA0000002070B52D4C15462DEDCB
:1088D000028B9FED2A8A226BF2B300EE900ADFED45
:1088E000291AF8EEE00A20EE801AC1EE210A01EE04
:1088F000101AB8EEC11A21EE000A80EE211AF6EE27
:10890000001A30EE810A60EE211A9FED1F0AC1EEB7
:10891000808AC0EE801AC1EE880AC4ED1E0AC1EE3C
:10892000000A80EE880A84ED1F0AFFF767FB84EDDA
:108930000F0A01F007FBD4ED0D0A48EE800AC4EDE2
:108940000D0A94ED0F0A01F0D7FED4ED0E0A48EEA1
:10895000800AC4ED0E0A00E00BE088EE880ADFED25
:108960000B0A84ED100A94ED170A20EE200A84ED1C
:10897000110A2563BDEC028B70BD00006F12833AB3
:108980000000002000A0C34400007A4435FA8E3C69
:10899000DFED090A094901E030EE600A10EE100A25
:1089A0008842F9DC064900BF10EE100A884202D95D
:1089B00030EE200AF8E77047DA0FC940DA0F494075
:1089C000DA0F49C0F8B5324FB86D40F00100B86514
:1089D000B86D00F001000090B86B40F00100B86382
:1089E000B86B20F00100B863FDF762FE44F6206129
:1089F000B0FBF1F000B901204FF080440025256064
:108A00006560A56040F20131E1602562A562401E0B
:108A1000E062656365620126666125612A4631462A
:108A20001C20FDF73DFB1C20FDF72CFBB86C40F033
:108A30000100B864B86C00F001000090B86C40F020
:108A40000400B864B86C00F0040000901148856020
:108A500011490161114A4261C6604FF4236282608C
:108A60000F4F3C233B60C56141620C49091D816287
:108A70000662C26138213A1D1160816841F001012E
:108A80008160C16941F00101C16181202060F8BDB0
:108A9000001002400000024018080048B400002006
:108AA0000008024070B586B014216846FBF7C9FB88
:108AB0002448C16C41F00201C164C16C01F00201A3
:108AC0000591816D41F002018165816D01F0020126
:108AD0000591816B41F002018163816B21F00201FC
:108AE00081633020009001A902200124032581E840
:108AF0003100049069461448FDF748F913490020F5
:108B000008600A1D1060121D1060131D18600F4BC5
:108B1000203318600D4E40F20113183633600B4EAF
:108B20004FF6FF732C363360331F18601B1F18601D
:108B300015600648143004600C6018680449C88049
:108B400006B070BD00100240000400480004004060
:108B5000AC0000200A4803218170C17000218160AF
:108B6000C16008494FF44070086007480168064A30
:108B70000C32491C11600068111D401C08607047D0
:108B8000AC000020180800482C2C014070B586B0BD
:108B900014216846FBF755FB2548C16C41F00401E0
:108BA000C164C16C01F004010591016E41F40051F2
:108BB0000166016E01F400510591016C41F4005110
:108BC0000164016C21F400510164C020009001A9EE
:108BD00002200124032581E8310004200490694625
:108BE0001448FDF7D3F81449002008600A1D1060EE
:108BF000121D1060131D18600F4B203318600E4EAD
:108C000040F20113183633600B4E4FF6FF732C36CB
:108C10003360331F18601B1F18601560064814303E
:108C200004600C6018680549888006B070BD0000BB
:108C3000001002400008004800340140AC00002051
:108C40000448006804498A888880821A12B2504217
:108C50007047000024340140AC0000200348016844
:108C6000034AD088D180081A00B27047240400401B
:108C7000AC0000202DE9F04186B014216846FBF7D6
:108C8000E0FA204CE06C40F00400E064E06C4FF44B
:108C9000407500F004000095059001AA012000260F
:108CA000032782E8C100DFF8608069464046FDF78F
:108CB0006DF8002229464046FDF787F914216846E1
:108CC000FBF7BFFAE06C40F00100E064E06C01A942
:108CD00000F00100059068000090022081E8C100CA
:108CE0000620049069464FF09040FDF74FF800F0E1
:108CF0000DF8FFF767FEFFF749FF06B0BDE8F0414A
:108D0000FFF7D0BE001002400008004838B52448E4
:108D1000016E41F400610166016E01F40061009191
:108D2000016C41F400610164016C21F40061016493
:108D3000FDF7D0FC44F62061B0FBF1F101B901214F
:108D4000184A00201060131D18601B1D18601B1DA1
:108D50001860144B20331860124C44342060114DBD
:108D600028352860491E2D1D89B229600D493831EA
:108D70000860091D08600B494FF4D04018310860A5
:108D80006820091D08604FF4887018604FF4004097
:108D9000206004490120143108608120106038BD32
:108DA00000100240002C014007490020074A88704B
:108DB000C8708860C8604FF0407111600449086055
:108DC000091D086070470000AC000020180800482A
:108DD000382C014070B5642801DD642009E06FF093
:108DE0006301884201DA084601E0002801DA4142C5
:108DF00000E001464FF0804511F0FF01EB6A4FEAB9
:108E0000D0741548154A03F1010308D0C1F1640676
:108E10005E436423B6FBF3F3642908D008E0002125
:108E200081708160C1604FF04070106070BD0023A0
:108E30006B634FF400714B1034B1022484701360E3
:108E400081600904C16070BD012484701160210635
:108E5000C0E9023170BD0000AC00002018080048D5
:108E6000F0B5642801DD642009E06FF063018842F9
:108E700001DA084601E0002801DA414200E001463B
:108E80004FEAD076134811F0FF010068134C124BE3
:108E900004F1040500F1010008D0C1F1640242436D
:108EA0006427B2FBF7F2642905D005E00020D870F2
:108EB00020602860F0BD00222EB10221D970401C34
:108EC00020602A60F0BD0121D970401C286022601A
:108ED000F0BD00002C2C0140AC000020382C0140DB
:108EE0004FF080400169C9070DD04FF6FE71016156
:108EF00005480178491C01700178142903D3002129
:108F00000170012141707047AC000020024948788F
:108F100000224A7070470000AC00002070B586B097
:108F20000D460646144614216846FBF78AF90020D0
:108F30000246059069460B48FDF786FE002205A90A
:108F40000848FDF75FFE16B19DF80000307015B1BE
:108F50009DF801002870002C02D09DF802002070BE
:108F600006B070BD8C030020F0B5A1B0382111A867
:108F7000FBF767F944216846FBF763F904260125EE
:108F800011A811961395FDF7EFFB08B1FCF768FAED
:108F90004FF400200090C01210906846FDF756F97B
:108FA00008B1FCF75DFA204850F8901F41F40041E9
:108FB00001601F481D490024C0E900147F21816021
:108FC000FF21C0E903144FF080414461C0E906412C
:108FD0000462FDF763FE08B1FCF742FA0121144870
:108FE000FDF7C6FD43F2F227B8421BD0002211461E
:108FF0000C2000F04DF81A201F948DF87F008DF89A
:109000007D508DF87E508DF87C6000221FA90848A5
:10901000FDF752FF08B1FCF723FA3A460121044854
:10902000FDF7ACFD21B0F0BD00100240002800406B
:109030008C03002070B58AB00D46064614462821E0
:109040006846FBF7FEF800208DF800608DF80150AF
:109050008DF802404FF000410190CDE904010390EA
:109060000690079001208DF8200000020990002250
:1090700069460648FDF762FE002201212920FDF71E
:109080000FF82920FCF7FEFF0AB070BD8C0300200A
:1090900070B586B00D460646144614216846FBF7A7
:1090A000D0F800208DF800608DF801500390024642
:1090B00004908DF8024069460248FDF74DFF06B066
:1090C00070BD00008C03002070B586B01421684686
:1090D000FBF7B7F81948C16C41F00201C164C16CDB
:1090E00001F002010591C16C41F00401C164C06C42
:1090F000012400F004000590202000258DE83100B7
:1091000003200F4E039069463046FCF73FFE40F2C5
:109110000440009069460B48FCF738FE1020CDE96A
:109120000005694602943046FCF730FE012000F04D
:109130004DF8002000F03EF806B070BD001002406F
:109140000008004800040048002000F03FB801205B
:1091500000F03CB82DE9F0470025DFF85090DFF82B
:1091600050A007462E464FF0800800BF28FA06F4AC
:109170003C4201D0012200E0002204214846FCF7D5
:1091800024FF012000F016F810215046FCF718FFCC
:10919000012800D12543002000F00CF8761CF6B21F
:1091A000082EE3D32846BDE8F087000000040048FD
:1091B0000008004808B1012200E000224FF480615D
:1091C0000148FCF702BF00000004004808B101227A
:1091D00000E0002220210148FCF7F7BE000800480B
:1091E000FEE770470148FDF7EBBC00008C03002050
:1091F000010901EB810100F00F0000EB4100C0B25A
:1092000070470022014602E00A39C9B2521C0A29FD
:10921000FAD2100741EA1060704700002DE9F041D2
:10922000044600680025C168490619D4C16841F0A8
:109230008001C160FCF7CEFE06464FF47A78032722
:1092400008E000BFFCF7C6FE801B404502D903259D
:1092500084F825702068C068400601D4032DF1D140
:109260002846BDE8F08170B5044600680025C16855
:1092700021F08001C160206881694FF003068906F2
:1092800007D42046FDF7CEFE98B184F8256003256B
:109290000FE0816921F0200181612046FDF7C2FEC7
:1092A00010B184F8256003252068816941F0200110
:1092B0008161284670BD00000148FDF767BC0000D1
:1092C0008C0300207047000000B587B01421684669
:1092D000FAF7B7FF0F48C16C41F00201C164C06CDE
:1092E000002100F002000590402000900220CDE90E
:1092F00001010321CDE9031069460748FCF746FD4B
:1093000000F00EF807B09FED050A5DF804EB00F0E1
:109310009DB8000000100240000400480000C84250
:1093200038B52148816D41F004018165816D01F0FE
:1093300004010091816B41F004018163816B21F094
:1093400004018163FDF7B4F91849B0FBF1F101B9EB
:109350000121174A00201060131D18601B1D1860A2
:109360001B1D1860124B20331860114C491E283405
:1093700089B22160241D44F61F6121600C493431FB
:1093800008600B4968201831086001201860091F27
:109390000860802010609FED070A00F00DF810684B
:1093A00040F00100106038BD0010024040420F0044
:1093B000000800400000C84210EE100A0849884228
:1093C00002DA9FED080A06E010EE100A064988420C
:1093D00001DD9FED060A064880ED010A7047000096
:1093E00000008C4200008C42000002430000024357
:1093F000BC00002000EE100A1348DFED120AB8EEA0
:10940000400A90EC021A20EE200A71EEC10AF4EE36
:10941000C00AF1EE10FA02DD31EE000A08E0B1EE0A
:10942000402AF4EEC20AF1EE10FA04D231EE400AFC
:1094300080ED000A03E0C0ED001A90ED000A00F094
:1094400005B800009A99193EBC000020DFED121A01
:10945000DFED100A124880EE211A9FED100A016814
:1094600001EE200A00EE901AF8EE600AF4EEC00A4F
:10947000F1EE10FA04D2006800EE100AB8EE400ACD
:1094800007490831BCEEC00A10EE100A80B208602D
:10949000704700000000FA44000034430000FA4323
:1094A0002C080040FCF79CBD0448016841F47001A1
:1094B00001600249024880390860704788ED00E089
:1094C00000400008FFF70CBD70B50A4D002400BF36
:1094D00004EB440000EBC40005EB40001621FAF752
:1094E000B0FE641C062CF3D30348002101704170C8
:1094F00070BD0000A8020020C400002000B587B0A5
:1095000014216846FAF79DFE0F48C16C41F0040132
:10951000C164C06C694600F0040005904FF44060DF
:109520000090022001900120029003200390072068
:1095300004900648FCF72AFC00F0A6F907B05DF895
:1095400004EBFFF7C1BF0000001002400008004814
:1095500070B50F4D2878052802D2401C287014E001
:109560000C4E002404EB440000EBC40006EB40006A
:1095700000F116011622FAF74BFE641C052CF1D3FC
:10958000044816216E30FAF75CFE0020687070BD4A
:10959000C4000020A80200200FB4802100B5A1B0B3
:1095A00023AB6846229A00F059FA684600F02EF97B
:1095B00021B05DF814FB000070B5084D084CE1883F
:1095C000A088814209D0685C491C89B2FF2900D972
:1095D0000021E18000F006F8F1E770BDA80100204D
:1095E000C400002070B50D282AD023490025234C43
:1095F0000A2813D02246A1F184061278082802EB2B
:10960000420303EBC20206EB420312D0A0F1200298
:109610005F2A00D32E20E2789AB11AE0A07820B118
:10962000E27812B90D540120E070BDE87040FFF7F8
:109630008FBF6078002803D0401EC0B260701D54F8
:1096400070BDA2785F2A04D28854521CD2B2A27094
:109650008D5461781429585402D2491C617001E07C
:10966000FFF776FF207800EB400101EBC000617846
:1096700006EB4000455470BD2C030020C4000020C0
:1096800070B5060014D099B10A4DE87880B1AC7875
:109690008C4200D34C1E224607493046FAF7B8FDEB
:1096A00000203055E8700449A8700870012070BD92
:1096B000002070BDC40000202C0300202DE9F047DD
:1096C00098462DED068B84B0B0EE628AF0EE428AA9
:1096D000B0EE619A91468A46F0EE609AB0EE40AAEA
:1096E000C8B111EE100AFBF71FF806460F4619EE37
:1096F000900AFBF719F804460D461AEE100AFBF71C
:1097000013F88DE8F00041EC100B18A053EC102B6F
:10971000FFF742FF02E01DA0FFF73EFF43464A4627
:10972000514621A0FFF738FF18EE100AFAF7FCFFA8
:1097300006460F4618EE900AFAF7F6FF04460D4665
:1097400019EE100AFAF7F0FF8DE8F00041EC100B6B
:109750001DA053EC102BFFF71FFF04B022A0BDEC9F
:10976000068BBDE8F047FFF717BF0000563A2535D6
:109770002E326620493A252B342E326620534F4331
:109780003A25352E316625250D0A0000563A464108
:10979000494C20493A4641494C20534F433A4641AF
:1097A000494C0D0A0000000041583A252B366C64E4
:1097B0002041593A252B366C6420415A3A252B36E4
:1097C0006C640D0A0000000047583A252B352E31F5
:1097D000662047593A252B352E316620475A3A25BF
:1097E0002B352E31660D0A002D2D2D2D2D2D2D2DD5
:1097F0002D2D2D2D2D2D2D2D2D2D2D2D2D2D2D2D99
:109800002D2D2D2D2D2D2D2D0D0A000010B50028EC
:109810000BD0064B054A0C330178002905D014689B
:109820002406FCD51960401CF6E710BD1C4800401A
:10983000AFF3008070B5114A1068000702D00F2006
:10984000111D08600D4C0E480E4D08341168890634
:1098500012D52168CBB28188491C89B2FF2900D971
:109860000021C688B14203D18168491C8160EDE7BF
:109870008688AB558180E9E770BD00001C48004038
:10988000C4000020A8010020204808B5816D41F4E3
:1098900080218165816D01F480210091816B41F40B
:1098A00080218163816B21F480218163FCF700FFBB
:1098B0004FF4E13100F56140B0FBF1F101B9012154
:1098C000134A00209080D0809060124A1060131DCF
:1098D00018601B1D1860181D01600E494FF0FF3005
:1098E000203108600B490820183108602C201060D6
:1098F000106840F001001060002201212720FCF7D1
:10990000CFFBBDE808402720FCF7BCBB001002409D
:10991000C400002000480040FEE7FFF7D5BB70B54B
:1099200015460E46044600F08FF8FFF70DFC0220A6
:10993000FFF710FCC4F30740FFF70CFCC4F307204B
:10994000FFF708FCE0B2FFF705FC002404E0305DFF
:10995000FFF700FC641CA4B2AC42F8D3FFF7F7FB9E
:10996000BDE8704000F05AB870B515460E46044682
:10997000FFF7EAFB0320FFF7EDFBC4F30740FFF717
:10998000E9FBC4F30720FFF7E5FBE0B2FFF7E2FBDA
:10999000002404E0FF20FFF7DDFB3055641CAC42DF
:1099A000F8D3BDE87040FFF7D2BB70B50C46054652
:1099B000FFF7CAFB9F20FFF7CDFBFF20FFF7CAFB95
:1099C0002870FF20FFF7C6FB4FF6FF7101EA002069
:1099D0002080FF20FFF7BEFB218808432080BDE8E0
:1099E0007040FFF7B4BB10B5044600F02DF8FFF748
:1099F000ABFB2020FFF7AEFBC4F30740FFF7AAFB49
:109A0000C4F30720FFF7A6FBE0B2FFF7A3FBFFF7C5
:109A10009EFBBDE8104000F001B8000010B5FFF754
:109A200093FB0520FFF796FB064C01E0641E04D073
:109A3000FF20FFF78FFBC007F8D1BDE81040FFF70C
:109A400086BB0000A086010010B5FFF77DFB062055
:109A5000FFF780FBBDE81040FFF779BB7CB50446FB
:109A600000201D46164600290BD0491ECDE90041B5
:109A7000044B6A462946304601F0D2F8009A00218C
:109A800011707CBD4FB300084100080218BF0420CC
:109A90000A0E18BF40F001004FF07F4232EA010188
:109AA00008BF40F00200012808BF052070470907E1
:109AB000090E002804DB00F1E02080F80014704754
:109AC00000F00F0000F1E02080F8141D7047000046
:109AD00030B52DED048B81B0B0EE408AF0EE608A97
